:020000021000EC
:10B000000040002069F50100A9F50100ABF5010041
:10B010000000000000000000000000000000000030
:10B02000000000000000000000000000ADF501007D
:10B030000000000000000000AFF50100B1F50100C4
:10B0400039CB0100B3F50100F1DE0100B3F50100D9
:10B05000B3F501000000000019D70100B3F50100AD
:10B06000B3F50100B3F50100B3F50100B3F501003C
:10B07000B3F50100B3F50100B3F50100B3F501002C
:10B08000B3F5010035C60100B3F50100B3F50100C9
:10B0900081C60100B3F5010029B60100B3F5010036
:10B0A000B3F50100B3F5010000000000000000004E
:10B0B0000000000000000000000000000000000090
:10B0C00010B5064C2378002B07D1054B002B02D07E
:10B0D000044800E000BF0123237010BD7C20002045
:10B0E000000000009C01020008B5084B002B03D0B3
:10B0F0000748084900E000BF07480368002B00D15B
:10B1000008BD064B002BFBD09847F9E70000000074
:10B110009C01020080200020782000200000000018
:10B12000164B002B00D1144B9D46402292029A1AD6
:10B13000924600218B460F461348144A121A04F017
:10B14000F4FF0F4B002B00D098470E4B002B00D084
:10B1500098470020002104000D000D48002802D06F
:10B160000C4800E000BF04F0B1FF2000290004F00B
:10B17000A3FD04F095FFC046000008000040002039
:10B1800000000000000000007C200020B822002009
:10B19000000000000000000080B582B000AF021C7B
:10B1A000FB1D1A70064BFA1D1278111C1F220A4053
:10B1B000012191400A1C1A60BD4602B080BDC04604
:10B1C00000E100E080B582B000AF021CFB1D1A70E8
:10B1D0000649FB1D1B781A1C1F23134001229A40AD
:10B1E000131C80228B50BD4602B080BD00E100E000
:10B1F00080B582B000AF021CFB1D1A70FB1D1B78CE
:10B200007F2B16D9164AFB1D1B78191C0F230B40E8
:10B21000083B9B0806339B00D3185B68FA1D127825
:10B22000111C03220A40D200D340FF2213409B0985
:10B2300011E00C4AFB1D1B785BB29B08C0339B00DE
:10B240009B58FA1D1278111C03220A40D200D340E9
:10B25000FF2213409B09181CBD4602B080BDC046AA
:10B2600000ED00E000E100E052DF7047181CC0462E
:10B2700010DF7047181CC04680B582B000AF786000
:10B280007B68032213405A425341DBB2181CBD466F
:10B2900002B080BD60DF7047181CC04661DF704798
:10B2A000181CC04680B582B000AF021CFB1D1A708E
:10B2B000FB1D1B785BB21F2B0BDCFB1D1B785BB2ED
:10B2C000064ADA40131C012213405A1E9341DBB296
:10B2D00000E00123181CBD4602B080BDFC06FFBC87
:10B2E00080B582B000AF78607B68032B01D9002362
:10B2F00008E07B68002B02D07B68022B01D1002381
:10B3000000E00123181CBD4602B080BD80B582B0AC
:10B3100000AF021CFB1D1A70FB1D1B785BB2181CD2
:10B32000FFF7C0FF031E01D11B4B30E0FB1D1B7854
:10B330005BB2181CFFF75CFF031C181CFFF7D0FF63
:10B34000031E01D1154B22E0154B5B68002B17D073
:10B35000FB1D1B785BB25A09FB1D1B785BB25909B8
:10B360000F4B8900CB58F91D0978081C1F2101409B
:10B3700001208840011C1943094B9200D15005E07F
:10B38000FB1D1B785BB2181CFFF706FF0023181C7F
:10B39000BD4602B080BDC046012000000220000072
:10B3A000B022002080B582B000AF021CFB1D1A70D5
:10B3B0000B4AFB1D1B785BB25B099B009A58FB1D77
:10B3C0001B78191C1F230B40DA40131C0122134069
:10B3D0005A1E9341DBB2181CBD4602B080BDC04668
:10B3E00000E100E080B584B000AFF860B9607A6039
:10B3F000F968BA687B68081C111C1A1C00F03EFB37
:10B40000BD4604B080BDC04680B584B000AF414B9E
:10B410001B78DBB201225340DBB2002B00D076E078
:10B420000F23FB1800221A703B4B1A680E23FB18DF
:10B4300051424A411A700F23FB181B7801225340D6
:10B44000DBB2002B27D0354B1B78DBB2002B5ED153
:10B450003B1D181CFFF708FF031CBB60BB68052BD6
:10B4600004D10F23FB1801221A7014E0BB68002BD3
:10B4700004D0BB68181C00F0D3FA0CE07B68181CE1
:10B4800001F08AFB264B1B68002B04D0244B1B6861
:10B490007A68101C98470E23FB181B780122534032
:10B4A000DBB2002B27D01D4B1B78DBB2002B2ED13B
:10B4B0001C4B1A88BB1C1A801B4B1A68BB1C101C27
:10B4C000191CFFF7EBFE031CBB60BB68052B04D106
:10B4D0000E23FB1801221A700DE0BB68002B04D06C
:10B4E000BB68181C00F09CFA05E00B4B1A680E4B69
:10B4F0001B68181C90470F23FB181B78002B05D0E6
:10B500000E23FB181B78002B00D000E093E7BD460C
:10B5100004B080BD9C200020A82000209D20002099
:10B52000AC200020A4200020A020002080B500AF87
:10B53000024B1B78DBB2181CBD4680BD9C2000204E
:10B5400090B587B000AFF860B9603B60BB1D1A8052
:10B55000BB68002B01D1072343E0BB68181CFFF731
:10B560008BFE031C1A1C01235340DBB2002B01D0BD
:10B57000072336E01D4BBA681A601D4BBA1D1288AE
:10B580001A801C4B3A681A601723FC180020FFF73A
:10B5900009FF031C23701723FB181B78002B02D014
:10B5A0000020FFF70FFEFA68134B101C191CFFF761
:10B5B0005FFE031C3B613B69002B09D01723FB187E
:10B5C0001B78002B02D00020FFF7E6FD3B6908E066
:10B5D0000A4B01221A7001F0EDFA1620FFF796FED1
:10B5E000031C181CBD4607B090BDC046A02000201B
:10B5F000A420002098200020E5B301009C2000201A
:10B6000080B582B000AF78607B68002B01D10E233B
:10B6100003E0044B7A681A600023181CBD4602B090
:10B6200080BDC046A820002080B582B000AF0C4B82
:10B630001B68002B0FD00A4B1B689847031C7B60CC
:10B640007B683B603B68002B04D03B68181C00F013
:10B65000E7F902E001E0FFF7D7FEBD4602B080BD8A
:10B660009820002080B582B000AF3A60FB1D021C1C
:10B670001A70BB1D0A1C1A703B68181C002114228A
:10B6800004F053FD3B6801221A803B6800221A61D6
:10B690003B681A7B01218A431A733B68BA1D1278F2
:10B6A0001A723B68FA1D12785A723B685B7A002B5B
:10B6B00002D03B6801229A720023181CBD4602B0DA
:10B6C00080BDC04680B586B000AF7860094BFB6096
:10B6D000FB683B617A681023FB18101C191CFFF7EC
:10B6E000D9FD031C7B61FB687B69181CBD4606B055
:10B6F00080BDC0460020002090B589B000AF7860C2
:10B700001F23FB1800221A7055E0304B1A681F23C4
:10B71000FB181B78DB00D318BB61BB691B781A1CB4
:10B72000012393407B612A4B1B687A6913403BD00D
:10B730007B69DA43264B1B681A40254B1A60BB69AC
:10B740001B781322BC18181C01F0D6FF031C2370B1
:10B75000BB691B781A1C012393401A1C1D4B1B68E4
:10B7600013401322BA181278B96909788A409342B3
:10B770001AD11323FB181B78BA695278013A514247
:10B780004A41D2B29B1A5A425341DBB2FB60BB69B9
:10B790005B68002B08D0BB695B68BA691178FA68EE
:10B7A000D2B2081C111C98471F23FB181A781F23BC
:10B7B000FB1801321A70084B1B781F22BA18127836
:10B7C0009A42A2D3BD4609B090BDC046B020002029
:10B7D000E0200020DC200020B420002080B584B0D0
:10B7E00000AF78600A1CFB1C1A707B6801229A402B
:10B7F000131CFB601E4B181C01F00EF8031CBB60F1
:10B80000BB68002B00D030E01A4B1B68FA6813406D
:10B8100024D17B68181C01F06FFF031E06D0164B65
:10B820001A68FB681A43144B1A6006E0FB68DA4397
:10B83000114B1B681A40104B1A600E4B1A68FB68BC
:10B840001A430C4B1A600A4A0C4B1B68101C191C3B
:10B85000002200F0ADFF031CBB6006E0FB68DA438A
:10B86000044B1B681A40034B1A60BD4604B080BDF0
:10B87000BC200020E0200020DC200020B820002098
:10B8800080B588B000AFF8607A600B23FB180A1C03
:10B890001A707B68042B01D8072362E001F006FED2
:10B8A000031C1A1C01235340DBB2002B08D001F00B
:10B8B000B1FD031CFB61FB69002B01D0FB6950E06B
:10B8C0002A4BFA681A602A4B0B22BA1812781A709F
:10B8D000284B7A681A60284B00221A60274B0022F6
:10B8E0001A602DE00B23FB181B78DB00FA68D318D5
:10B8F000BB611423FB1803221A701423FB180022C7
:10B900005A701423FB1800229A701423FB1800228B
:10B91000DA70BB699A781423FB185A70BB691B78DC
:10B92000191C1423FA18164B081C111C1A1C01F0C0
:10B93000CBFD031CFB61FB69002B01D0FB6910E010
:10B940000B23FB181B780B22BA18591E1170002B01
:10B95000C8D10C4A0C4B101C00211A1C00F0F2FE3E
:10B96000031C181CBD4608B080BDC046B020002096
:10B97000B4200020B8200020DC200020E02000209F
:10B98000DDB7010064010200F9B6010080B582B0A4
:10B9900000AF00237B600CE00B4B1A687B68DB0078
:10B9A000D3181B78181C012101F0F8FD7B680133C6
:10B9B0007B60064B1B781A1E7B689A42ECD80023EA
:10B9C000181CBD4602B080BDB0200020B42000206D
:10B9D00080B582B000AF00237B600BE00D4B1A688E
:10B9E0007B68DB00D3181B78181C01F05BFE7B68BA
:10B9F00001337B60084B1B781A1E7B689A42EDD896
:10BA0000064B181C00F008FF031C181CBD4602B0B2
:10BA100080BDC046B0200020B4200020BC20002003
:10BA200080B586B000AF78600C23FB1800221A8026
:10BA30000C23FB1800225A600C23FB187A689A60CA
:10BA40000C23FB18044A101C00211A1C00F016F8E5
:10BA5000BD4606B080BDC0460140000080B500AFC5
:10BA6000BFF34F8F034B044ADA60BFF34F8FC046DA
:10BA7000FDE7C04600ED00E00400FA0580B584B0A3
:10BA800000AFF860B9607A60FFF7E8FFBD4604B028
:10BA900080BDC04680B582B000AF021CFB1D1A708D
:10BAA000064BFA1D1278111C1F220A4001219140F9
:10BAB0000A1C1A60BD4602B080BDC04600E100E02D
:10BAC00080B582B000AF021CFB1D1A700649FB1D39
:10BAD0001B781A1C1F23134001229A40131C80223A
:10BAE0008B50BD4602B080BD00E100E080B582B061
:10BAF00000AF021CFB1D1A700649FB1D1B781A1CA7
:10BB00001F23134001229A4080235B00CA50BD4688
:10BB100002B080BD00E100E080B582B000AF021C41
:10BB2000FB1D1A700649FB1D1B781A1C1F231340AE
:10BB300001229A40C0235B00CA50BD4602B080BDBE
:10BB400000E100E0B0B582B000AF021C3960FB1D1F
:10BB50001A70FB1D1B787F2B2FD92D4CFB1D1B78DA
:10BB60001A1C0F231340083B9908294AFB1D1B7818
:10BB7000181C0F230340083B9B0806339B00D31877
:10BB80005B68FA1D1278101C03220240D200101CC0
:10BB9000FF228240D2431A403B689B01FF200340B2
:10BBA000F81D0078051C03202840C00083401A437C
:10BBB0008B1D9B00E3185A6026E0164CFB1D1B787A
:10BBC0005BB29B081349FA1D127852B29208C03238
:10BBD00092005258F91D0978081C03210140C90040
:10BBE000081CFF218140C94311403A689201FF209F
:10BBF0000240F81D0078051C03202840C000824048
:10BC00000A43C0339B001A51BD4602B0B0BDC046C6
:10BC100000ED00E000E100E080B582B000AF7860A8
:10BC20007B68032213405A425341DBB2181CBD46C5
:10BC300002B080BD80B584B000AF78600C4BFB6073
:10BC40007B68002B11D00B4B1A68F9687B68C046E3
:10BC5000C046C046C046C046C046C046C0468A42EE
:10BC600000D0C046013BF2D17B60BD4604B080BD30
:10BC70000024F4000C20002080B582B000AF786072
:10BC80000549A123DB007A68CA5011200321FFF780
:10BC900059FFBD4602B080BD0010014080B500AF25
:10BCA0000E49D1239B0080225202CA500B49C12366
:10BCB0009B0080225202CA501120FFF72DFF112055
:10BCC000FFF7E8FE054B01221A602F20FFF7B2FFB5
:10BCD000034B01221A70BD4680BDC04600100140D2
:10BCE0000421002080B500AF1120FFF7E9FE1049C4
:10BCF000D2239B0080225202CA500D49C2239B00CE
:10BD000080225202CA500A4B01225A602F20FFF7AC
:10BD100091FF074B01229A60064B00221A602F20E8
:10BD2000FFF788FF044B00221A70BD4680BDC04655
:10BD300000100140F02000200421002080B500AF59
:10BD4000024A034BD358181CBD4680BD0010014069
:10BD50000405000080B582B000AF786039607A6871
:10BD60003B68D31A1B021B0A181CBD4602B080BDDB
:10BD700080B582B000AF78600349A823DB007A6801
:10BD8000CA50BD4602B080BD0010014080B586B0EB
:10BD900000AF7860284B1B68002B03D1264B7A68D4
:10BDA0001A6045E07B681A68234B1B681B689A423F
:10BDB00010D8214B1B68204A126811687A681268F3
:10BDC0008A1A1A601C4B1A687B68DA611A4B7A6807
:10BDD0001A602DE07B681B68FB60174B1B687B615A
:10BDE000154B1B683B6109E03B691B68FA68D31A75
:10BDF000FB603B697B613B69DB693B613B69002B15
:10BE000004D03B691A68FB689A42EDD33B69002B6A
:10BE100005D03B691A68FB68D21A3B691A607B68D7
:10BE2000FA681A607B683A69DA617B697A68DA6174
:10BE3000BD4606B080BDC046EC20002080B586B06F
:10BE400000AF7860214B1B687B617B693B6109E037
:10BE50003A697B689A4200D107E03B697B613B69A4
:10BE6000DB693B613B69002BF2D13B69002B00D1C0
:10BE700028E07A693B699A4211D1144B1B68DA6950
:10BE8000124B1A60114B1B68002B08D1104B01227A
:10BE90009A60104B00221A600F4B01221A703B6906
:10BEA0001B68FB603B69DA697B69DA617B69DB6986
:10BEB0003B613B69002B05D03B691A68FB68D218CF
:10BEC0003B691A60BD4606B080BDC046EC2000202C
:10BED00000100140F02000200521002080B500AFB7
:10BEE0001120FFF703FEBD4680BDC04680B500AF00
:10BEF0001420FFF7FBFDBD4680BDC04680B584B071
:10BF000000AF7860114B1B68002B15D00F4B1A68DF
:10BF10007B6859697B689B69081C191C9047031C46
:10BF2000FB60FB68BB60BB68002B04D0BB68181CBF
:10BF3000FFF776FD06E005E07B685A697B689B6940
:10BF4000181C9047BD4604B080BDC04600210020AB
:10BF500080B584B000AF2B4B1B68002B4FD0002363
:10BF60007B60FFF7EBFE021C274B1B68101C191CA3
:10BF7000FFF7F0FE031CBB60224B1B68FB601FE059
:10BF8000FB681A68BB689A4200D91CE0FB681B6812
:10BF9000BA68D31ABB60FB681B687A68D3187B60E9
:10BFA000FB683B60FB68DB69FB603B681B7C002B2C
:10BFB00006D03B6800221A743B68181CFFF79EFFEE
:10BFC000FB68002BDCD1114B1A78114B1B789A427D
:10BFD0000CD10F4B1B780133DAB20D4B1A700C4B9E
:10BFE0001B78022B02D10A4B00221A70084B1B78D7
:10BFF0001A1C084B92007968D150FFF777FFBD46B5
:10C0000004B080BDEC200020F0200020FC200020A7
:10C01000FD200020F420002080B582B000AF7860C1
:10C02000184B1A78184B1B789A4223D0154B1B7863
:10C030000133DAB2134B1A70124B1B78022B02D168
:10C04000104B00221A700F4B1B781A1C0F4B9200DA
:10C05000D2587B681A607B681A680D4B1B68D2182F
:10C060000B4B1A600A4B1B681B021A0A084B1A601A
:10C07000012303E07B6800221A600023181CBD46E0
:10C0800002B080BDFC200020FD200020F420002014
:10C09000F020002080B584B000AF0F23FB18294AA0
:10C0A00012781A70284B1B68BB6039E0254B596821
:10C0B0000F23FB181A78131C5B009B18DB00CB18AE
:10C0C0007B600F23FB181A780F23FB1801321A70BC
:10C0D0001C4B9B780F22BA1812789A4203D10F2377
:10C0E000FB1800221A707B681B78022B02D0032BEE
:10C0F00010D014E07B685B68181CFFF79FFE0FE010
:10C10000114B1B683B603B6800221A743B68DA697C
:10C110000D4B1A600C4B1B68002BF1D100E0C046A0
:10C12000084B5B780F22BA1812789A42BED1064BA0
:10C130001A68BB68D31A5A1E9341DBB2181CBD465D
:10C1400004B080BDE4200020EC20002080B588B041
:10C1500000AFF860B9607A600023FB6138E0204BE3
:10C160001B68BB61BB691A68FB689A4206D9BB6948
:10C170001A68FB68D21ABB691A602DE0BB691B689C
:10C18000FA68D31AFB60BB691B68FA69D318FB61B4
:10C19000BB6900221A60124B1B687B61BB69DA69BC
:10C1A0000F4B1A60BB69DB68002B11D0BA68FB69C2
:10C1B000D3181B021A0ABB695A60BB69DA68BB69EB
:10C1C0009A607B681A68BB69DA617B687A691A6071
:10C1D000034B1B68002BC2D1BD4608B080BDC046D2
:10C1E000EC20002080B586B000AF7860504B1B6813
:10C1F0003B6187E07B68002B05D07B687B617B69B6
:10C20000DB697B603CE04B4B5A684A4B1B78191C3E
:10C210000B1C5B005B18DB00D318FB60454B1B78E5
:10C220000133DAB2434B1A70424B1A78414B9B7878
:10C230009A4202D13F4B00221A70FB685B687B6117
:10C24000FB681B78012B03D17B691B7C002B00D082
:10C2500058E0FB689A687B695A60FB68DA687B691A
:10C260009A60FB681A697B69DA60FB685A697B69C6
:10C270009A61314B1B78002B02D07B6900225A60F7
:10C280007B695A682D4B1B68D31A1B021B0A2C4A68
:10C2900093420ED87B695A68284B1B68101C191CE6
:10C2A000FFF758FD021C7B699B68D2187B691A60F6
:10C2B00018E0224B1A687B695B68101C191CFFF799
:10C2C00049FD031CBB607B699A68BB689A4206D92A
:10C2D0007B699A68BB68D21A7B691A6002E07B6945
:10C2E00000221A607B6900225A607B6900229A60F2
:10C2F0007B6901221A747B690022DA617B69181C50
:10C30000FFF744FD7B68002B00D073E7094B1A78D8
:10C31000084B5B789A4200D06CE7054B1A683B6982
:10C32000D31A5A1E9341DBB2181CBD4606B080BD1D
:10C33000EC200020E420002005210020F020002037
:10C34000FEFF7F0090B589B000AF78602B4B1B6873
:10C35000002B4ED0294B1B681B68FB61FFF7EEFCDE
:10C36000031CBB61264B1B687B61BA697B69101C8F
:10C37000191CFFF7EFFC031C03333B61214B1B78B7
:10C3800001225340DBB2002B01D0FFF787FCFA6992
:10C390003B69934200D2131C7A69D3187B617B6995
:10C3A0001B021B0A7B617B69181CFFF7E1FCFFF78E
:10C3B000C5FC031CFB60FA68BB69101C191CFFF765
:10C3C000C9FC031CDC1C7A69BB69101C191CFFF733
:10C3D000C1FC031C9C420BD9FFF7B0FC031C181CCA
:10C3E000FFF7C6FC2F20FFF725FCFFF777FD02E0E3
:10C3F00001E0FFF777FCBD4609B090BDEC200020BE
:10C40000F02000200421002090B587B000AF002369
:10C410007B601F4B1B683B611E4B1B68FB600B2343
:10C42000FC183B1C181CFFF7F7FD031C2370172397
:10C43000FC18FFF72FFE031C23700B23FB181B783F
:10C44000002B0BD039683A693B1D081C111C1A1CC3
:10C45000FFF77CFE1723FB1801221A707B68181C5B
:10C46000FFF7C0FE031E03D01723FB1801221A702A
:10C470001723FB181B78002B03D0FB68181CFFF751
:10C4800061FF054B00221A70BD4607B090BDC04643
:10C49000F0200020EC2000200521002080B582B093
:10C4A00000AF021CFB1D1A70034BFA1D12785A7064
:10C4B000BD4602B080BDC046E420002080B584B0F7
:10C4C00000AF7860174B5A780F23FB1801321A70AF
:10C4D000144B9B780F22BA1812789A4203D10F237B
:10C4E000FB1800221A700F4B1B780F22BA18127813
:10C4F0009A4201D1002310E07B680F22BA1812780B
:10C500001A70084B5A68074B5B78191C0B1C5B00B0
:10C510005B18DB00D318BB60BB68181CBD4604B0B9
:10C5200080BDC046E420002080B588B000AFF86030
:10C53000B9607A603B600023FB611623FB18002280
:10C540001A701623FB18181C00F0F8F91723FB18B3
:10C55000181CFFF7B3FF031CBB61BB69002B02D1A2
:10C560000423FB6119E0BB6901221A70BB69FA68F8
:10C570005A60FFF7E3FB021CBB699A60BB69BA68AB
:10C58000DA60BB697A681A61BB693A685A61172335
:10C59000FB181B78181CFFF781FF1623FB181B786C
:10C5A000181C00F0D7F9FB69002B01D1FFF79EFCA6
:10C5B000FB69181CBD4608B080BDC04680B586B07A
:10C5C00000AF78600A1CFB1C1A7000237B610E23ED
:10C5D000FB1800221A700E23FB18181C00F0AEF98D
:10C5E0000F23FB18181CFFF769FF031C3B613B6915
:10C5F000002B02D104237B610CE03B69FA1C12780A
:10C600001A703B697A685A600F23FB181B78181C54
:10C61000FFF744FF0E23FB181B78181C00F09AF953
:10C620007B69002B01D1FFF761FC7B69181CBD46BB
:10C6300006B080BD80B500AF104AA0235B0000218A
:10C64000D1500E4AA2235B000021D1500B4AA423F3
:10C650005B000021D150094AA6235B000021D15084
:10C66000064A80235B000021D150044A82235B00EC
:10C670000021D150FFF76CFCBD4680BD0010014089
:10C6800080B500AFFFF7C0FEBD4680BD80B584B069
:10C6900000AFF8607A603B600B23FB180A1C1A702D
:10C6A0007B68181CFFF7B8FA031C1A1C01235340BF
:10C6B000DBB2002B01D0072334E07B68002B01D1D3
:10C6C00007232FE0FFF70EFB184B3A681A60184B50
:10C6D00000221A70164B00225A70154B0B22BA1802
:10C6E00012789A70124B7A685A60124B00221A60C4
:10C6F000114B00221A70114B00221A701420FFF700
:10C700000BFA14200321FFF71DFA1420FFF7C2F9DA
:10C71000FB68181CFFF7B0FAFFF710FB021C084B70
:10C720001A600023181CBD4604B080BD0021002003
:10C73000E4200020EC200020FC200020FD20002030
:10C74000F020002080B586B000AFF8607A600B233F
:10C75000FB180A1C1A70154B5B68002B01D10823CB
:10C760001FE07B68002B01D107231AE0FB68002B38
:10C7700001D1072315E0FB681B681B7C002B01D04F
:10C7800008230EE0FB681B687B617B6900221A743A
:10C790007B690B22BA1812785A747B697A685A61DD
:10C7A0000023181CBD4606B080BDC046E420002012
:10C7B00080B586B000AFF860B9607A60FB687B61D5
:10C7C000144B5B68002B01D108231EE0FB68002B93
:10C7D00001D1082319E0BB68042B01D8072314E01A
:10C7E0007B695B69002B01D108230EE07B695B7CD0
:10C7F000012B01D1BB6800E000233B617869B96877
:10C800003A697B68FFF790FE031C181CBD4606B012
:10C8100080BDC046E420002080B584B000AF7860C1
:10C820007B68FB600D4B5B68002B01D1082311E096
:10C830007B68002B03D0FB685B69002B01D10823C8
:10C8400008E0FB6800221A74FB68181C0221FFF73D
:10C85000B5FE031C181CBD4604B080BDE4200020BA
:10C8600080B582B000AFEFF310833B603B687B6024
:10C8700072B67B68181CBD4602B080BD80B500AFA3
:10C8800062B6BD4680BDC04680B584B000AF78605A
:10C89000FFF7E6FF031CFB60114B5B68002B11D117
:10C8A0000F4B01225A600F4A8023D3580E4A1A4078
:10C8B0000B4B1A600B4A80230B49D1507B68002236
:10C8C0001A7002E07B6801221A70FB68002B01D10C
:10C8D000FFF7D4FF0023181CBD4604B080BDC0463E
:10C8E000B022002000E100E0FC06FFBC80B584B06F
:10C8F00000AF021CFB1D1A700E4B5B68002B13D09F
:10C90000FB1D1B78002B0FD1FFF7AAFF031CFB6058
:10C91000094A084B1B681360064B00225A60FB68EB
:10C92000002B01D1FFF7AAFF0023181CBD4604B05D
:10C9300080BDC046B022002000E100E080B582B09A
:10C9400000AF78607B68181CFFF79EFFBD4602B001
:10C9500080BDC04680B582B000AF021CFB1D1A70BE
:10C96000FB1D1B78181CFFF7C1FFBD4602B080BD40
:10C9700080B582B000AF78608023DA05C2239B00C7
:10C980007968D150BD4602B080BDC04680B582B046
:10C9900000AF021CBB1D1A80BB1D1B888022D20564
:10C9A0009446634400221A60BD4602B080BDC04672
:10C9B00080B582B000AF021CBB1D1A80BB1D1B8856
:10C9C0008022D205944663441B685A1E9341DBB211
:10C9D000181CBD4602B080BD80B582B000AF021CFD
:10C9E000FB1D1A708023DA05FB1D1B7803211940FB
:10C9F000A323DB00D150BD4602B080BD80B582B01C
:10CA000000AF021CFB1D1A700B4AFB1D1B785BB2AA
:10CA10005B099B009A58FB1D1B78191C1F230B40B8
:10CA2000DA40131C012213405A1E9341DBB2181C3A
:10CA3000BD4602B080BDC04600E100E080B500AF59
:10CA40000020FFF7DBFF031C1A1C01235340DBB25D
:10CA5000002B03D00020032100F068F9BD4680BD03
:10CA600080B582B000AF00237B60144B1B78002B95
:10CA700002D085237B601CE0104B00229A600F4B94
:10CA800000225A600D4B00221A610C4B0022DA6022
:10CA9000FFF7D4FFFEF74AFD031C1A1C0123534085
:10CAA000DBB2002B02D00120FFF796FF034B0122DF
:10CAB0001A707B68181CBD4602B080BD082100209A
:10CAC00080B584B000AF78607B681B68FB60FB6852
:10CAD000002B03D0FB681A687B681A60FB68181C7F
:10CAE000BD4604B080BDC04680B584B000AF021C16
:10CAF000FB1D1A70FB1D1B78002B02D10C4BFB6039
:10CB000001E00C4BFB60FB68181CFFF7D9FF031C0E
:10CB1000BB60BB68002B00D106E0BB685B68FA1DF8
:10CB20001278101C9847EEE7BD4604B080BDC046A1
:10CB3000102100201821002080B500AF80235B0069
:10CB4000181CFFF735FF031E0DD080235B00181C57
:10CB5000FFF71CFF0120FFF70BFF0E4B01225A705D
:10CB60000020FFF7C1FF82235B00181CFFF720FFA6
:10CB7000031E0DD082235B00181CFFF707FF022065
:10CB8000FFF7F6FE034B01229A700120FFF7ACFF7E
:10CB9000BD4680BD0821002080B582B000AF78601E
:10CBA0007B68002B02D10020FFF79EFFBD4602B03C
:10CBB00080BDC04680B582B000AFFB1D00221A7058
:10CBC000FB1D181CFFF7BAFE0C4B1B7801225340CB
:10CBD000DBB2002B01D0FFF743FF084BDB685A1C88
:10CBE000064BDA60054B01229A70FB1D1B78181C5E
:10CBF000FFF7B0FEBD4602B080BDC0460821002050
:10CC000080B582B000AF021CFB1D1A70064BFA1DE6
:10CC10001278111C1F220A40012191400A1C1A603F
:10CC2000BD4602B080BDC04600E100E080B582B0E4
:10CC300000AF021CFB1D1A700649FB1D1B781A1C55
:10CC40001F23134001229A40C0235B00CA50BD46F7
:10CC500002B080BD00E100E0B0B582B000AF021CC0
:10CC60003960FB1D1A70FB1D1B787F2B2FD92D4CB3
:10CC7000FB1D1B781A1C0F231340083B9908294AF7
:10CC8000FB1D1B78181C0F230340083B9B08063331
:10CC90009B00D3185B68FA1D1278101C0322024017
:10CCA000D200101CFF228240D2431A403B689B01F5
:10CCB000FF200340F81D0078051C03202840C00019
:10CCC00083401A438B1D9B00E3185A6026E0164CE4
:10CCD000FB1D1B785BB29B081349FA1D127852B2F8
:10CCE0009208C03292005258F91D0978081C03219D
:10CCF0000140C900081CFF218140C94311403A6826
:10CD00009201FF200240F81D0078051C03202840F6
:10CD1000C00082400A43C0339B001A51BD4602B096
:10CD2000B0BDC04600ED00E000E100E080B582B09B
:10CD300000AF021CFB1D1A70BB1D0A1C1A70BB1D24
:10CD40001A78FB1D1B785BB2181C111CFFF784FFBF
:10CD5000FB1D1B785BB2181CFFF768FFFB1D1B78DF
:10CD60005BB2181CFFF74CFFBD4602B080BDC04649
:10CD700080B582B000AF021CBB1D1A80BB1D1B8892
:10CD8000181C00F01DF8031C1B68013B5A4253415C
:10CD9000DBB2181CBD4602B080BDC04680B582B073
:10CDA00000AF021CBB1D1A80BB1D1B88181C00F0A5
:10CDB00007F8031C00221A60BD4602B080BDC046C1
:10CDC00080B582B000AF021CBB1D1A80BB1D1B8842
:10CDD000034A94466344181CBD4602B080BDC04659
:10CDE0000060004080B582B000AF78600349C12385
:10CDF0009B007A68CA50BD4602B080BD006000400A
:10CE000080B582B000AF78600349C2239B007A6886
:10CE1000CA50BD4602B080BD0060004080B582B0FF
:10CE200000AF7860044AC1239B00D3587A6813404E
:10CE3000181CBD4602B080BD0060004080B582B0C5
:10CE400000AF78600849084A7B684533FF339B0090
:10CE50009B5801221A437B684533FF339B005A508D
:10CE6000BD4602B080BDC0460060004080B582B0C3
:10CE700000AF78600849084A7B684533FF339B0060
:10CE80009B58012293431A1C7B684533FF339B0058
:10CE90005A50BD4602B080BD0060004090B585B0DC
:10CEA00000AFF860B960FB1D1A701549144AFB68A1
:10CEB0004533FF339B009B58124A1A40FB684533A9
:10CEC000FF339B005A500E480D4AFB684533FF3331
:10CED0009B009A58BB681902F8235B011940FB1D9F
:10CEE0001B781B041C1CC0239B0223400B431A43CA
:10CEF000FB684533FF339B001A50BD4605B090BD1B
:10CF000000600040FFE0FCFF80B582B000AF7860B9
:10CF1000064A7B684533FF339B009A58F8235B0130
:10CF200013401B0A181CBD4602B080BD00600040C3
:10CF300080B582B000AF7860074A7B684533FF3325
:10CF40009B009A58C0239B0213401B0CDBB2181C99
:10CF5000BD4602B080BDC0460060004080B582B0D2
:10CF600000AF7860A023DB05181CBD4602B080BD71
:10CF700090B585B000AF78600C1C101C191CFB1C10
:10CF8000221C1A70BB1C021C1A707B1C0A1C1A7013
:10CF90003B1D181CFFF7E2FF031CFB607A68FB1CBB
:10CFA0001978BB1C1B785B0019437B1C1B789B000A
:10CFB00019432023FB181B781B0219432423FB1859
:10CFC0001B781B041943FB68C132FF329200D15019
:10CFD000BD4605B090BDC04690B585B002AF786043
:10CFE0000A1CFB1C1A707A68FB1C1C780023009337
:10CFF00000230193101C00210022231CFFF7B8FF1F
:10D00000BD4603B090BDC04680B584B000AF786027
:10D010003B1D181CFFF7A2FF031CFB607A68FB682E
:10D02000C132FF329200D35802229343BB607A6828
:10D03000FB68C132FF329200B968D150BD4604B0DE
:10D0400080BDC04680B584B000AF78600A1CFB1C70
:10D050001A703B1D181CFFF781FF031CFB607A68E8
:10D060007968FB68C131FF318900CB580C49194000
:10D07000FB68C132FF329200D1507A687968FB6850
:10D08000C131FF318900CB58F91C097809041943D3
:10D09000FB68C132FF329200D150BD4604B080BD62
:10D0A000FFFFFCFF80B584B000AF78603B1D181C0B
:10D0B000FFF754FF031CFB60FB68181C00F024F80A
:10D0C000021C7B68DA40131C01221340181CBD4669
:10D0D00004B080BD80B584B000AF78603B1D181CE3
:10D0E000FFF73CFF031CFB607A68FB68C132FF322C
:10D0F0009200D258C0239B0213401B0CDBB2181CB9
:10D10000BD4604B080BDC04680B582B000AF786037
:10D110007A68A223DB00D358181CBD4602B080BD3C
:10D1200080B586B000AFF860B9607A60A023DB05F7
:10D130003B61FB687B6113E07B699B00182294468E
:10D14000BC446344083B1B68181CFFF7DDFF021C4E
:10D150007B681A607B6804337B607B6901337B6189
:10D16000FA68BB68D2187B699A42E5D8BD4606B01A
:10D1700080BDC04680B584B000AF786039603B6840
:10D18000FB607B68DB08BB607B68072213407B6029
:10D190007B6801229A40131CF968BA688A181278D1
:10D1A0001340181CBD4604B080BDC04680B584B095
:10D1B00000AF786039603B68FB607B68DB08BB6070
:10D1C0007B68072213407B60FA68BB68D318F96854
:10D1D000BA688A181278D0B27A68012191400A1C84
:10D1E000D2B2011C0A43D2B2D2B21A70BD4604B008
:10D1F00080BDC04680B582B000AF78600E4A202165
:10D200007B68D3185B181B785BB2002B0ADB0A4AD9
:10D2100020217B68D3185B181B785BB2032B01DCE1
:10D22000012300E000231A1C01231340DBB2181C69
:10D23000BD4602B080BDC0461C21002080B582B032
:10D2400000AF7860084A20217B68D3185B181B78F0
:10D2500001225BB2032B01DC00231A1CD3B2181C81
:10D26000BD4602B080BDC0461C21002080B582B002
:10D2700000AF7860064A20217B68D3185B181B78C2
:10D28000DB43DBB2DB09DBB2181CBD4602B080BD5C
:10D290001C21002080B584B000AFF860B9607A60CE
:10D2A0001A1CFB1C1A70BB68D8B2104A2021FB68FC
:10D2B000D3185B18021C1A700C4BBA68920079687C
:10D2C000D150FB1C1B7801225340DBB2002B09D04C
:10D2D000BB68043BFA68D0B2044A4021D3185B18FB
:10D2E000021C1A70BD4604B080BDC0461C2100203F
:10D2F00080B582B000AF7860044A20217B68D318E3
:10D300005B18FF221A70BD4602B080BD1C210020B0
:10D3100080B582B000AF7860054A20217B68D318C1
:10D320005B181B785BB2181CBD4602B080BDC046BE
:10D330001C21002080B582B000AF7860034B7A6872
:10D340009200D358181CBD4602B080BD1C2100209D
:10D3500080B588B000AFF860B960FB1D1A701F235C
:10D36000FB18FF221A70FB1D1B78002B01D0002335
:10D3700000E004237B61FB1D1B78002B01D00423FC
:10D3800000E008233B617B69BB6114E0104BBA6984
:10D390009200D35801330BD1F868B969BA68FB1D04
:10D3A0001B78FFF777FF1F23FB18BA691A7006E096
:10D3B000BB690133BB61BA693B699A42E6D31F235B
:10D3C000FB181B785BB2181CBD4608B080BDC04678
:10D3D0001C21002080B582B000AF021CFB1D1A701A
:10D3E000FB1D1A780A4B920001214942D150FB1DC6
:10D3F0001B78032B08D9FB1D1B78043B044A4021F2
:10D40000D3185B18FF221A70BD4602B080BDC0461B
:10D410001C21002080B582B000AF234B44229B5CCE
:10D42000002B03D008233B603B6838E0FB1D002243
:10D430001A7009E0FB1D1B78181CFFF759FFFB1D34
:10D440001A78FB1D01321A70FB1D1B781F2BF1D9B6
:10D45000FB1D00221A7009E0FB1D1B78181CFFF74A
:10D46000B9FFFB1D1A78FB1D01321A70FB1D1B78DA
:10D47000072BF1D906200321FFF758FCBE235B00E0
:10D48000181CFFF78BFC80231B06181CFFF7AAFC57
:10D49000054B44220121995400233B603B68181C32
:10D4A000BD4602B080BDC0461C21002080B500AF43
:10D4B000044B44229B5C5A1E9341DBB2181CBD46B0
:10D4C00080BDC0461C21002090B587B000AFF86039
:10D4D000B9607A6000237B61FB68181CFFF7C6FE09
:10D4E000031E02D008237B6151E0BB68DB78132266
:10D4F000BC18F9687A68081C111C1A1CFFF728FF71
:10D50000031C23701323FB181B785BB201333CD040
:10D51000BB689B78002B04D0FB68181CFFF774FDD8
:10D5200006E0BB685B78FA68101C191CFFF754FD15
:10D53000BB68DB78002B0CD01323FB180021595655
:10D54000BB681B78FA68081C111C1A1CFFF7A6FCA4
:10D550001DE01323FB181B785BB2043B1322BA189F
:10D56000127852B2043A0C4940208A1812181178E5
:10D57000BA6812789201D2B20A43D0B2064A402168
:10D58000D3185B18021C1A7001E004237B617B69CD
:10D59000181CBD4607B090BD1C21002080B586B088
:10D5A00000AF78600A1CFB1C1A707B68181CFFF720
:10D5B00045FE031E3AD07B68181CFFF7A9FE031C2A
:10D5C000043B374A4021D3185B181A781623FB18FE
:10D5D0001A701523FB181622BA18127892091A70BD
:10D5E0001523FB181B78032B0CD17B68181CFFF745
:10D5F00059FD031E01D0032200E002221723FB186D
:10D600001A700AE01523FB181B78012B01D10222A6
:10D6100000E003221723FB181A707A681723FB18FF
:10D620001B78101C191CFFF70DFD35E07B68181CDA
:10D63000FFF7E0FD031E2FD07B68181CFFF768FE84
:10D64000031C3B613B699BB240339AB20E23FB182B
:10D6500092001A803B69181CFFF7F0FB0E23FB18A1
:10D660001B88181CFFF79AFBFB1C1B78002B13D0A0
:10D670007B68181CFFF74CFE031C181CFFF75AFEB2
:10D68000031CBB60BB68002B06D001223B699A409B
:10D69000131C181CFFF7A6FBBD4606B080BDC04694
:10D6A0001C21002080B584B000AF78607B68181C16
:10D6B000FFF7C4FD031E05D07B68181C0021FFF78F
:10D6C000C1FC16E07B68181CFFF794FD031E10D008
:10D6D0007B68181CFFF71CFE031CFB60FB68181C12
:10D6E000FFF7C4FB0122FB689A40131C181CFFF7CC
:10D6F00087FBBD4604B080BD80B582B000AF7860C6
:10D700007B68181CFFF7CEFC031C5A1E9341DBB24A
:10D71000181CBD4602B080BD90B595B000AF002387
:10D72000FB640023FB604623FB18802252001A8012
:10D7300001233B640023BB6424E04623FB181B88C1
:10D74000181CFFF715FB031E0FD03B6C181CFFF7CE
:10D7500065FB031E09D04623FB181B88181CFFF726
:10D760001DFBFA6C3B6C1343FB643B6C5B003B643E
:10D770004623FB184622BA18128804321A80BB6C62
:10D780000133BB64BB6C032BD7D9BE235B00181CD1
:10D79000FFF7EEFA031E10D0BE235B00181CFFF744
:10D7A000FDFAFB6C802212061343FB640C23FB186A
:10D7B000002001211A1CFFF7B3FCFB6C0F22134061
:10D7C00030D001233B640023BB6428E03B6CFA6C3F
:10D7D00013401ED0BB6C181CFFF796FB031C7B6329
:10D7E0003323FC18BB6C181CFFF7A2FB031C23702F
:10D7F000BB6C181CFFF79EFD031CFB62FB6A002B31
:10D8000007D0796B3323FB181A78FB6A081C111CAC
:10D8100098473B6C5B003B64BB6C0133BB64BB6CE7
:10D82000032BD3D9FB6C002B00DB20E13B23FB183F
:10D8300000221A700023BB600023FB630CE0FB6B2B
:10D840009B0050229446BC4463444C3B012252420C
:10D850001A60FB6B0133FB63FB6B002BEFD03B23A8
:10D86000FB1800221A700023BB6494E0814A402117
:10D87000BB6CD3185B181A782B23FB181A702B2358
:10D88000FB181B78C02293437B627A4A4021BB6C11
:10D89000D3185B181B785BB2013300D178E07A6A49
:10D8A0003B1D101C191CFFF765FC031E00D16FE027
:10D8B0002323FB182B22BA18127892091A707B6A5C
:10D8C000181CFFF725FD031C181CFFF733FD031C74
:10D8D000FB61FB69002B04D12323FB181B78032B6E
:10D8E00056D12323FB181B78032B06D17A6A082311
:10D8F000FB18101C191CFFF759FC1B23FC187B6A32
:10D90000181CFFF7E7FB031C23707A6A0C23FB1833
:10D91000101C191CFFF72EFC031C7B617B69002B7C
:10D9200004D01B23FB181B78022B07D07B69002B2C
:10D930002ED11B23FB181B78032B29D12323FB1883
:10D940001B78032B19D11B23FB181B78022B01D149
:10D95000032200E002221323FB181A707A6A1323B1
:10D96000FB181B78101C191CFFF76CFB3B23FB18E2
:10D970003B22BA18127801321A70FB69002B07D0CB
:10D98000796A2323FB181A78FB69081C111C984735
:10D99000BB6C0133BB64BB6C032B00D866E73B2335
:10D9A000FB181B78002B5CD03A23FB1801221A705D
:10D9B0003B1C002001211A1CFFF7B2FB0023FB6374
:10D9C00019E0FB6B9B0050229446BC446344503BDF
:10D9D0001A68FB6B9B0050218C46BC446344443B5B
:10D9E0001B689A4204D03A23FB1800221A7005E003
:10D9F000FB6B0133FB63FB6B002BE2D03A23FB187C
:10DA00001B78002B04D03B23FB1800221A7028E05F
:10DA10000023FB6322E0FB6B9B0050229446BC4436
:10DA20006344503B1A68FB6B9B0050218C46BC44FE
:10DA30006344443B1A60FB6B9B0050229446BC44F9
:10DA40006344483B1A68FB6B9B0050218C46BC44E6
:10DA500063444C3B1A60FB6B0133FB63FB6B002B95
:10DA6000D9D03B23FB181B78002B00D0F7E6BD462E
:10DA700015B090BD1C21002080B582B000AF786049
:10DA80000A1CBB1C1A80BB1C1B887A68D318002296
:10DA90001A60BD4602B080BD80B582B000AF78602C
:10DAA0000A1CBB1C1A80BB1C1B887A68D3181B6815
:10DAB0005A1E9341DBB2181CBD4602B080BDC04661
:10DAC00080B582B000AF786039607A68C1239B006E
:10DAD000D3583A6813405A1E9341DBB2181CBD4616
:10DAE00002B080BD80B582B000AF786039607A68DE
:10DAF000C2239B003968D150BD4602B080BDC046EC
:10DB000080B584B000AF78607A689023DB00D3588A
:10DB1000FB607A689023DB00F968D150FB68181C21
:10DB2000BD4604B080BDC04680B582B000AF78600D
:10DB30007A68A323DB00D358DBB2181CBD4602B0C1
:10DB400080BDC04680B582B000AF78600A1CFB1C67
:10DB50001A70FB1C1A787B6802495A50BD4602B005
:10DB600080BDC0461C05000080B582B000AF786063
:10DB70000A1CFB1C1A70FB1C1B787A68D318012244
:10DB80001A60BD4602B080BD80B584B000AF786039
:10DB900039607A688E235B00101C191CFFF76CFF3C
:10DBA0003B689B683A68928A92B29A180F23FB18D6
:10DBB00012781A703B689B8A9BB201339AB23B6819
:10DBC0009A827A680F23FB181B78101C191CFFF728
:10DBD000B9FFBD4604B080BD90B583B000AF78609A
:10DBE00039603B68DB7D002B0BD17A6884235B00B6
:10DBF000101C191CFFF740FF7B68181CFFF794FFEF
:10DC000019E07A6884235B00101C191CFFF734FFAD
:10DC10003B68DB683A68527ED2B29C187B68181C5D
:10DC2000FFF782FF031C23703B685B7EDBB201338E
:10DC3000DAB23B685A76BD4603B090BD80B588B075
:10DC400000AFF8607A600B23FB180A1C1A701023CF
:10DC5000FB1801221A701023FB180B22BA18127835
:10DC60001A721023FB187A685A60FB685A68FB68BE
:10DC70001B6810217918081C191C9047BD4608B074
:10DC800080BDC04680B586B000AF78600A1CFB1C22
:10DC90001A700823FB1800221A700823FB18FA1CBC
:10DCA00012781A727B689A680823FB185A607B689E
:10DCB00000229A757B685A687B681B68082179186E
:10DCC000081C191C9047BD4606B080BD80B588B0C1
:10DCD00000AF786039607A6880239B00101C191CA3
:10DCE000FFF7EEFE031E48D07A6892235B00101CFB
:10DCF000191CFFF7D1FE031E3FD07A6892235B0008
:10DD0000101C191CFFF7B8FE7A6881239B00101CB9
:10DD1000191CFFF7E7FE3B689B7E01225340DBB2F4
:10DD2000002B04D07B68181C0421FFF71DFF08237B
:10DD3000FB1802221A707B68181CFFF7E1FE021C18
:10DD40000823FB18DA603B68DA7D0823FB181A7297
:10DD50003B68DA680823FB185A603B680022DA75D2
:10DD60003B6800221A763B685A683B681B680821AA
:10DD70007918081C191C904762E07B68181C042164
:10DD8000FFF79EFE031E5BD07A6884235B00101CA5
:10DD9000191CFFF781FE031E52D07A683B68101CE5
:10DDA000191CFFF719FF3B68DA7D3B685B7EDBB22D
:10DDB0009A4245D13B681B7E002B20D03B68DB6834
:10DDC000FB611B23FB183A68527E1A703B681A7E6F
:10DDD0003B68DA753B681A693B68DA603B68002289
:10DDE0001A763B6800225A7639681B23FB181A788A
:10DDF000FB69081C111C1A1CFFF720FF20E03B6880
:10DE00009B7E01225340DBB2002B04D07B68181CA0
:10DE10000421FFF7A9FE7A6881239B00101C191CBE
:10DE2000FFF760FE3B680022DA753B685B7EDAB282
:10DE30003B68DB683968081C111C1A1CFFF7FEFEE2
:10DE40007A688E235B00101C191CFFF725FE031E49
:10DE500020D03B689B8A9AB23B689B7D9BB29A42DA
:10DE600006D27A683B68101C191CFFF78DFE11E082
:10DE70007A688E235B00101C191CFFF7FDFD3B68C0
:10DE80009B7D002B06D03B689B7D3A68101C191CBB
:10DE9000FFF7F8FE7A68A2235B00101C191CFFF73D
:10DEA000FBFD031E21D07A68A2235B00101C191C05
:10DEB000FFF7E2FD3B689B7E002B04D07B68181CBB
:10DEC0000021FFF751FE3B68DB7D002B0DD03B6846
:10DED0000022DA753B685B7EDAB23B68DB68396842
:10DEE000081C111C1A1CFFF7A9FEBD4608B080BD16
:10DEF00080B500AF034A044B101C191CFFF7E6FE67
:10DF0000BD4680BD0020004064210020A0DF704796
:10DF1000181CC046A2DF7047181CC046A6DF704719
:10DF2000181CC04663DF7047181CC04680B582B01D
:10DF300000AF786039603B689A887B689A82BD46FA
:10DF400002B080BD80B582B000AF786039607B6878
:10DF5000012252429A82BD4602B080BD80B584B093
:10DF600000AF786039603B680633FB60FB681A8855
:10DF70007B685B889A420FD1FB685B89012B0BD1D0
:10DF80007B689B69002B07D07B689B69FA68127BD2
:10DF90007968081C111C9847BD4604B080BDC04676
:10DFA00080B582B000AF786039603B681B88112B68
:10DFB0000BD0502B10D0102B00D014E07A683B68A7
:10DFC000101C191CFFF7B2FF0DE07A683B68101CAB
:10DFD000191CFFF7B7FF06E07A683B68101C191C94
:10DFE000FFF7BCFFC046BD4602B080BD80B590B013
:10DFF00000AF786039602423FB18181C00211C2214
:10E0000002F093F82423FB181A7802210A431A70AD
:10E010002423FB181A7808210A431A702423FB18BA
:10E0200000225A602423FB180022DA602423FB1804
:10E0300000221A612423FB1800225A612423FB18B2
:10E0400000229A617B689A7C0C23FB189A700C233F
:10E05000FB183C4A1A800823FB18181C00210322D5
:10E0600002F063F80823FB181A780F218A43111C69
:10E0700001220A431A700823FB181A780F210A405C
:10E08000111C10220A431A700823FB185A780F211A
:10E090008A43111C01220A435A700823FB185A783C
:10E0A0000F210A40111C10220A435A700823FB1842
:10E0B0009A7806218A43111C02220A439A70082387
:10E0C000FB189A7808218A439A700823FB189A78DB
:10E0D00010218A439A700823FB189A7801218A43F9
:10E0E0009A701023FB18181C0021142202F01DF84E
:10E0F0001023FB180C22BA181A601023FB180822F0
:10E10000BA185A601023FB1801221A811023FB1839
:10E1100000225A811023FB1801229A811023FB1838
:10E1200000221A617B6818887B6802332422B918A0
:10E130001022BA18FFF7EEFE031C181CBD4610B0E3
:10E1400080BDC0462515000080B592B000AF786054
:10E1500039602823FB18181C0021032201F0E5FF79
:10E160002823FB181A780F218A43111C01220A4325
:10E170001A702823FB181A780F210A40111C10224C
:10E180000A431A702823FB185A780F218A43111C5E
:10E1900001220A435A702823FB185A780F210A409B
:10E1A000111C10220A435A702823FB189A78062162
:10E1B0008A43111C02220A439A702C23FB18181C54
:10E1C00000211C2201F0B1FF2C23FB181A78022138
:10E1D0000A431A702C23FB181A7810210A431A706C
:10E1E0002C23FB1800225A602C23FB180022DA6033
:10E1F0002C23FB1800221A612C23FB182822BA18A2
:10E200005A612C23FB1800229A617B689A7C1023A8
:10E21000FB189A701023FB18384A1A800C23FB183D
:10E22000181C0021032201F080FF0C23FB181A7830
:10E230000F218A43111C01220A431A700C23FB1878
:10E240001A780F210A40111C10220A431A700C235D
:10E25000FB185A780F218A435A700C23FB185A78FE
:10E260000F210A405A700C23FB189A7806218A4322
:10E27000111C02220A439A700C23FB189A78082179
:10E280008A439A700C23FB189A7810218A439A705B
:10E290000C23FB189A7801218A439A701423FB18E7
:10E2A000181C0021142201F040FF1423FB18102237
:10E2B000BA181A601423FB180C22BA185A601423D7
:10E2C000FB1801221A811423FB1800225A811423FF
:10E2D000FB1801229A811423FB1800221A617B6823
:10E2E00018887B680A332C22B9181422BA18FFF751
:10E2F00011FE031C181CBD4612B080BD2415000081
:10E3000080B588B000AF786039607B6801225242E6
:10E310009A823B681A687B689A610823FA18274B2F
:10E32000111C1A1C1023081C111C1A1C01F0F4FEED
:10E330007B6812330822BA18101C191CFFF7F2FD73
:10E34000031CFB61FB69002B01D0FB6932E07B6899
:10E350009A7C1823FB189A701823FB18184A1A8005
:10E360007B681822BA180120111C1A1CFFF7CEFD79
:10E37000031CFB61FB69002B01D0FB691AE07A6882
:10E380003B68101C191CFFF7DFFE031CFB61FB69D7
:10E39000002B01D0FB690DE07A683B68101C191C4A
:10E3A000FFF724FE031CFB61FB69002B01D0FB6916
:10E3B00000E00023181CBD4608B080BD68010200C3
:10E3C0002315000080B588B000AF78600A1CFB1CE4
:10E3D0001A700E23FB1801221A801023FB18181C38
:10E3E0000021102201F0A1FE1023FB1801229A70D7
:10E3F0007B685A891023FB181A801023FB18FA1C1B
:10E40000DA601023FB180E22BA189A607B689A8A89
:10E410001023FB18101C191CFFF780FD031C181C8F
:10E42000BD4608B080BDC04671DF7047181CC046AD
:10E4300072DF7047181CC04679DF7047181CC04651
:10E440007DDF7047181CC04665DF7047181CC0464A
:10E4500080B582B000AF021C3960BB1D1A80BB1DA5
:10E460001B88DAB23B681A703B680133BA1D128808
:10E47000120A92B2D2B21A700223181CBD4602B020
:10E4800080BDC04680B588B000AFF860B960BB1DE4
:10E490001A80BB681B8809331A1CBB1D1B889A4253
:10E4A00001D90C2353E01423FB18181CFFF7BCFF01
:10E4B000031CFB61FB69002B01D0FB6947E0BB68D3
:10E4C0001B881A1CFB689B1808221A70BB681B88E3
:10E4D00001339AB2BB681A80BB681B881A1CFB68A0
:10E4E0009B181B221A70BB681B8801339AB2BB6849
:10E4F0001A80BB681B881A1CFB689A181423FB1827
:10E500000133101C191C062201F006FEBB681B8893
:10E5100006339AB2BB681A801423FB181B78002BB1
:10E5200007D1BB681B881A1CFB689B1800221A7055
:10E5300006E0BB681B881A1CFB689B1801221A7036
:10E54000BB681B8801339AB2BB681A800023181C71
:10E55000BD4608B080BDC04680B588B000AFF86049
:10E56000B9607A601A1CBB1C1A80FB681B78012BEF
:10E5700005D1FB685B78002B01D1072399E07B680C
:10E580001B889A1CBB1C1B889A420ED8FB681B7800
:10E59000012B0CD17B681B881A1CFB685B78D31895
:10E5A0009A1CBB1C1B889A4201D90C2381E07B6812
:10E5B0001B88BA1C1288D31A9AB21C23FB18023A81
:10E5C0001A801623FB181C22BA1812881A807B683E
:10E5D0001B880233BA68D2181623FB18101C191CAA
:10E5E000FFF72EFF031CBB61BB69002B01D0BB6989
:10E5F0005FE0FB681B78022B0CD11623FB181B88ED
:10E600001C22BA1812889A4204D31F23FB1809222D
:10E610001A701CE01F23FB1808221A70FB681B7875
:10E62000012B0ED1FB685B789BB21C22BA181288B2
:10E630009A4206D3FB685B789AB21623FB181A80BD
:10E6400005E01623FB181C22BA1812881A8016231C
:10E65000FB181B88FE2B01D90C232AE07B681B8842
:10E660001A1CBB689B181622BA181288D2B2013243
:10E67000D2B21A707B681B8801339AB27B681A8009
:10E680007B681B881A1CBB689B181F22BA1812785B
:10E690001A707B681B8801339AB27B681A807B688A
:10E6A0001A881623FB181B88D3189AB27B681A8025
:10E6B0000023181CBD4608B080BDC04680B586B09A
:10E6C00000AFF860B960BB1D1A80BB681B881A1DBB
:10E6D000BB1D1B889A4201D90C233BE01223FB1877
:10E6E000181CFFF7A9FE031C7B617B69002B01D07E
:10E6F0007B692FE0BB681B881A1CFB689B180322F0
:10E700001A70BB681B8801339AB2BB681A80BB6859
:10E710001B881A1CFB689B1819221A70BB681B887F
:10E7200001339AB2BB681A801223FB181A88BB689F
:10E730001B88191CFB685B18101C191CFFF788FE4E
:10E74000031C191CBB681A888BB2D3189AB2BB6819
:10E750001A800023181CBD4606B080BD80B584B069
:10E7600000AFB9607A60191C0F23FB18021C1A70E5
:10E770000C23FB180A1C1A807B681B88DA1C0C23EC
:10E78000FB181B889A4201D90C2329E07B681B885F
:10E790001A1CBB689B1802221A707B681B88013305
:10E7A0009AB27B681A807B681B881A1CBB689B180E
:10E7B00001221A707B681B8801339AB27B681A8029
:10E7C0007B681B881A1CBB689B180F22BA1812782A
:10E7D0001A707B681B8801339AB27B681A80002309
:10E7E000181CBD4604B080BD80B584B000AFB960D0
:10E7F0007A60191C0F23FB18021C1A700C23FB18DB
:10E800000A1C1A807B681B88DA1C0C23FB181B88E7
:10E810009A4201D90C2329E07B681B881A1CBB682B
:10E820009B1802221A707B681B8801339AB27B689E
:10E830001A807B681B881A1CBB689B180A221A70F6
:10E840007B681B8801339AB27B681A807B681B88BF
:10E850001A1CBB689B180F22BA1812781A707B68B2
:10E860001B8801339AB27B681A800023181CBD46AE
:10E8700004B080BD80B58AB000AFF860081C111CE0
:10E880007B600B23FB18021C1A700A23FB180A1C5E
:10E890001A702323FB1800221A702023FB183A6BEE
:10E8A00012881A8000237B6286E0FB685A687B6AC4
:10E8B0009B00D3181022BA18111C1A1C0423081C20
:10E8C000111C1A1C01F028FC1023FA181723FB183E
:10E8D000101C191C0022FFF7B7FD031CFB61FB692C
:10E8E000002B01D0FB6990E01723FB181B780A224C
:10E8F000BA1812789A425CD12323FB181B78002B9C
:10E9000001D0002200E002221B23FB181A703B6B8F
:10E910001B881A1C1723FB181B78D2181B23FB1803
:10E920001B78D2183423FB181B889A4201DD0C2374
:10E930006BE02323FB181B7801225340DBB2002B32
:10E9400018D03B6B1B8801339AB23B6B1A803B6B30
:10E950001B881A1C7B689B180B22BA1812781A7035
:10E960003B6B1B8801339AB23B6B1A802323FB1845
:10E9700001221A703B6B1B881A1C7B689B181022A3
:10E98000B9181722BA18081C111C1A1CFFF75CFDD5
:10E99000031CFB61FB69002B01D0FB6935E03B6B7D
:10E9A0001A881723FB181B789BB2D3189AB23B6BBB
:10E9B0001A807B6A01337B62FB681B881A1E7B6AA4
:10E9C0009A4200DD71E72323FB181B78002B1BD034
:10E9D0003B6B1A882023FB181B88D31A9AB2182382
:10E9E000FB18013A1A801823FB181B88FF2B01D94A
:10E9F0000C230AE02023FB181B887A68D3181822FE
:10EA0000BA181288D2B21A700023181CBD460AB078
:10EA100080BDC04690B589B002AFF860081C111CDB
:10EA20007B600B23FB18021C1A700A23FB180A1CBC
:10EA30001A70F9680B23FB181A787C68BB6A00937C
:10EA40002C23FB181B880193081C111C0222231C79
:10EA5000FFF710FF031C7B617B69002B01D07B69F2
:10EA600018E0F9680A23FB181A787C68BB6A0093DF
:10EA70002C23FB181B880193081C111C1022231C3B
:10EA8000FFF7F8FE031C7B617B69002B01D07B69DB
:10EA900000E00023181CBD4607B090BD80B582B0D1
:10EAA00000AF78607B681B88052B0AD97B681A88C1
:10EAB000C8231B019A4206D97B681B88164A9342D9
:10EAC00001D0072323E07B685B88052B0AD97B688C
:10EAD0005A88C8231B019A4206D97B685B880E4A74
:10EAE000934201D0072312E07B681B880A4A9342B5
:10EAF0000CD07B685B88084A934207D07B681A88F1
:10EB00007B685B889A4201D9072300E00023181C28
:10EB1000BD4602B080BDC046FFFF000080B586B094
:10EB200000AFF860B9607A601A1CBB1C1A807B6861
:10EB30001B889A1DBB1C1B889A4201D90C234DE0EF
:10EB4000FB68181CFFF7AAFF031C7B617B69002B85
:10EB500001D07B6942E07B681B881A1CBB689B184C
:10EB600005221A707B681B8801339AB27B681A8071
:10EB70007B681B881A1CBB689B1812221A707B6862
:10EB80001B8801339AB27B681A80FB681A887B68FD
:10EB90001B88191CBB685B18101C191CFFF758FC5C
:10EBA000031C191C7B681A888BB2D3189AB27B6835
:10EBB0001A80FB685A887B681B88191CBB685B1825
:10EBC000101C191CFFF744FC031C191C7B681A88D5
:10EBD0008BB2D3189AB27B681A800023181CBD46EA
:10EBE00006B080BD80B586B000AFF860B9607A60CD
:10EBF0001A1CBB1C1A80FB689B8802337B617B68F4
:10EC00001B881A1C7B69D3189A1CBB1C1B889A4250
:10EC100001D90C2356E07B69FE2B01D90C2351E06E
:10EC20007B681B881A1CBB689B187A69D2B20132B8
:10EC3000D2B21A707B681B8801339AB27B681A8043
:10EC40007B681B881A1CBB689B18FF221A707B68A4
:10EC50001B8801339AB27B681A80FB681A887B682C
:10EC60001B88191CBB685B18101C191CFFF7F0FBF4
:10EC7000031C191C7B681A888BB2D3189AB27B6864
:10EC80001A80FB689B88002B1BD0FB689B68002BBD
:10EC900001D1072316E07B681B881A1CBB689918F2
:10ECA000FB689A68FB689B88081C111C1A1C01F001
:10ECB00033FA7B681A88FB689B88D3189AB27B6802
:10ECC0001A800023181CBD4606B080BD80B588B0F0
:10ECD00000AFF860B9607A601A1CBB1C1A80FB6830
:10ECE0009B6A002B01D107237AE01F23FB18002227
:10ECF0001A706BE0FB68996A1F23FB181A78131CC3
:10ED00005B009B189B00CB18BB61BB699B880233DF
:10ED10007B617B69FE2B01D90C2361E07B681B883A
:10ED20001A1CBB689B187A69D2B20132D2B21A702F
:10ED30007B681B8801339AB27B681A807B681B88CA
:10ED40001A1CBB689B1816221A707B681B8801333B
:10ED50009AB27B681A80BB691A887B681B88191C69
:10ED6000BB685B18101C191CFFF772FB031C191CF5
:10ED70007B681A888BB2D3189AB27B681A80BB69F9
:10ED80009B88002B1BD0BB699B68002B01D10723FC
:10ED900026E07B681B881A1CBB689918BB699A68B7
:10EDA000BB699B88081C111C1A1C01F0B5F97B6813
:10EDB0001A88BB699B88D3189AB27B681A801F2374
:10EDC000FB181A781F23FB1801321A70FB682C22DB
:10EDD0009B5C1F22BA1812789A4200D28AE700235D
:10EDE000181CBD4608B080BD90B589B002AFF86070
:10EDF000B9607A6000237B611223FB187A6812885D
:10EE00001A807B6800221A80FB682D229B5C002BF5
:10EE100010D0B9687A681223FB181B88081C111CD3
:10EE20001A1CFFF72FFB031C7B617B69002B01D0B1
:10EE30007B69E1E0FB689B78002B10D0B9687A68A9
:10EE40001223FB181B88081C111C1A1CFFF736FC28
:10EE5000031C7B617B69002B01D07B69CCE0FB68E4
:10EE6000DB78002B11D0FB68DB78DBB258B2B968D5
:10EE70007A681223FB181B88FFF770FC031C7B6168
:10EE80007B69002B01D07B69B6E0FB685B68002BD7
:10EE900011D0FB685B681B7858B2B9687A68122396
:10EEA000FB181B88FFF7A0FC031C7B617B69002B10
:10EEB00001D07B69A0E0FB681B89002B16D0FB68A2
:10EEC00008331A1CBC687B6800931223FB181B884C
:10EED0000193101C02210622231CFFF79BFD031C3B
:10EEE0007B617B69002B01D07B6985E0FB681B8A15
:10EEF000002B16D0FB6810331A1CBC687B6800938B
:10EF00001223FB181B880193101C03210722231CCA
:10EF1000FFF780FD031C7B617B69002B01D07B69BF
:10EF20006AE0FB681B8B002B16D0FB6818331A1C99
:10EF3000BC687B6800931223FB181B880193101C8C
:10EF400014211522231CFFF765FD031C7B617B69DF
:10EF5000002B01D07B694FE0FB681B6A002B0FD0B0
:10EF6000FB68186AB9687A681223FB181B88FFF7D8
:10EF7000D5FD031C7B617B69002B01D07B693BE0E5
:10EF8000FB685B6A002B0FD0FB68586AB9687A6827
:10EF90001223FB181B88FFF725FE031C7B617B698E
:10EFA000002B01D07B6927E0FB682C229B5C002BA7
:10EFB0000ED0F868B9687A681223FB181B88FFF72F
:10EFC00085FE031C7B617B69002B01D07B6913E00C
:10EFD000FB681B78002B0ED0F868B9687A6812239A
:10EFE000FB181B88FFF7B8FA031C7B617B69002BB9
:10EFF00001D07B6900E07B69181CBD4607B090BD5D
:10F0000080B582B000AF78607B68DB781A1C04237F
:10F01000134001D1072300E00023181CBD4602B0B5
:10F0200080BDC04680B582B000AF78607B68DB7879
:10F03000002B01D0072300E00023181CBD4602B0BE
:10F0400080BDC04680B596B000AF786039604A2375
:10F05000FB181F221A804823FB181F221A807B6886
:10F06000002B1FD07B68181CFFF7CAFF031CFB6432
:10F07000FB6C002B01D0FB6C50E079682823FA1858
:10F080004A23FB18081C111C1A1CFFF7ADFE031CB9
:10F09000FB64FB6C002B01D0FB6C3FE02823FB18CA
:10F0A0007B6505E000237B654A23FB1800221A805C
:10F0B0003B68002B1FD03B68181CFFF7B3FF031CF5
:10F0C000FB64FB6C002B01D0FB6C27E03968082344
:10F0D000FA184823FB18081C111C1A1CFFF784FEA1
:10F0E000031CFB64FB6C002B01D0FB6C16E00823B7
:10F0F000FB183B6505E000233B654823FB18002215
:10F100001A804A23FB181B88D9B24823FB181B8896
:10F11000DBB2786D3A6DFFF78BF9031C181CBD4606
:10F1200016B080BD75DF7047181CC04676DF70478B
:10F13000181CC0467ADF7047181CC0467BDF70473A
:10F14000181CC04680B582B000AF78607B685A88D2
:10F15000084B1B889A4207D37B685A88054B5B880B
:10F160009A4201D8012300E00023181CBD4602B0DA
:10F1700080BDC0469C21002080B586B000AF78607D
:10F18000294B1B88294A93424BD0294B1B780133CA
:10F19000DAB2274B1A70274B1A7B254B1B789A4201
:10F1A00016D3214B1A88244B101C191CFFF7BAFFE9
:10F1B000031C7B617B69002B09D01E4B9B69002BD4
:10F1C00005D01C4B9B697A69101C984729E028E000
:10F1D000174B00221A70174B1B7C002B13D0124BBD
:10F1E0001B88181C3B21FFF7A1FF031C3B613B69F7
:10F1F000002B08D00F4B9B69002B04D00D4B9B6953
:10F200003A69101C98470B4B5B69002B09D00C2303
:10F21000FB1800221A70074B5B690C22BA18101CED
:10F220009847BD4606B080BDA6210020FFFF000024
:10F23000A4210020802100209C21002090B585B0D1
:10F2400000AF7860214B7A6813CA13C313CA13C383
:10F2500012681A601E4B00221A707B681B68002B14
:10F2600015D07B681B681B4A111C1A1C0823081C3C
:10F27000111C1A1C00F050FF164B181CFFF75AFF08
:10F28000031CFB60FB68002B0CD0FB6819E0114BE2
:10F29000181CFFF753FF031CFB60FB68002B01D019
:10F2A000FB680EE00C4B012252421A800B4B0022ED
:10F2B0001A700B4A0B4B101C00211A1CFDF742FA66
:10F2C000031C181CBD4605B090BDC046802100201F
:10F2D000D02100209C210020A6210020A421002074
:10F2E0007801020079F1010080B584B000AF284BAD
:10F2F000181CFFF727FF031C1A1C01235340DBB225
:10F30000002B32D0234B1B78002B0CD0224B5B6997
:10F31000002B29D03B1D00221A701F4B5B693A1D40
:10F32000101C98472DE01D4B1B78002B03D11A4B66
:10F330005B68FB6002E0184B9B68FB60184AFB6847
:10F34000101C191C0022FDF733FA031CBB60BB68BC
:10F35000002B09D0104B9B69002B05D00E4B9B69ED
:10F36000BA68101C98470CE00BE00B4B5B69002B54
:10F3700007D03B1C01221A70074B5B693A1C101C1A
:10F380009847044B00221A70BD4604B080BDC046A9
:10F39000A8210020D021002080210020A4210020CD
:10F3A000B021002080B582B000AF78607B689A8879
:10F3B000094B1A80094A7B68183303CB03C2084BF8
:10F3C00000221A70074BDB89002B01D1FFF78CFF5D
:10F3D000BD4602B080BDC046A6210020A821002065
:10F3E000A42100208021002080B584B000AF786087
:10F3F0000D4B012252421A800C4B00221A700C4B0A
:10F40000181CFDF709FA031CFB60FB68002B08D0F1
:10F41000084B9B69002B04D0064B9B69FA68101CB3
:10F420009847BD4604B080BDA6210020A42100203D
:10F43000B02100208021002080B584B000AF78602A
:10F440007B680633FB60FB681A88134BDB899A42A2
:10F450001FD1FB685B89022B1BD1FB680C33181C86
:10F4600000F06AF8031E02D0FFF73EFF11E00B4BDD
:10F47000181CFDF7D1F9031CBB60BB68002B08D03A
:10F48000054B9B69002B04D0034B9B69BA68101C89
:10F490009847BD4604B080BD80210020B0210020E7
:10F4A00080B582B000AF7860044A7B68083303CB34
:10F4B00003C2FFF719FFBD4602B080BDA82100209E
:10F4C00080B582B000AF78607B681B88112B0DD0AF
:10F4D00002DC102B05D018E0122B11D0502B0AD0D3
:10F4E00013E07B68181CFFF75DFF0EE07B68181CBB
:10F4F000FFF77AFF09E07B68181CFFF79DFF04E027
:10F500007B68181CFFF7CCFFC046BD4602B080BD2B
:10F5100080B582B000AF78607B681B789AB27B6858
:10F5200001331B781B029BB213439BB29BB2181C86
:10F53000BD4602B080BDC04690B585B000AF7860D2
:10F540000E23FC187B68181CFFF7E2FF031C2380C6
:10F550000E23FB181B88012213405A1E9341DBB275
:10F56000181CBD4605B090BD03210A4802680A4335
:10F570000260094802680A4302600849084A094BC8
:10F580009B1A03DD043BC858D050FBDC00F0B8FBED
:10F59000FBF7C6FD2405004054050040A801020009
:10F5A000002000207C200020FEE7FEE7FEE7FEE7CB
:10F5B000FEE7FEE773DF7047181CC04676DF704732
:10F5C000181CC0467ADF7047181CC0467CDF7047A5
:10F5D000181CC0467FDF7047181CC046A8DF704764
:10F5E000181CC046A9DF7047181CC04667DF70476B
:10F5F000181CC04648DF7047181CC04680B500AFD5
:10F6000000F034FDBD4680BD80B582B000AF0A4B2E
:10F61000002005211A1C0023FDF738F8031C7B602D
:10F620007B683B603B68002B03D03B68181CFCF7F1
:10F63000F7F9BD4602B080BDF021002080B586B04C
:10F6400000AF3B1C1A780F218A43111C01220A4388
:10F650001A703B1C1A780F210A40111C10220A4311
:10F660001A701E4B181C00F068FD031C9BB2391C5D
:10F670001A4A081C111C1A1CFFF7A8FF031C7B6107
:10F680007B693B613B69002B03D03B69181CFCF78D
:10F69000C7F93B1D181C0021082200F046FD3B1D48
:10F6A00050221A803B1DA0225A803B1D00229A80C6
:10F6B0003B1DC8225200DA803B1D181CFFF782FF59
:10F6C000031C7B617B69FB60FB68002B03D0FB683C
:10F6D000181CFCF7A5F9BD4606B080BD7C010200F0
:10F6E00080B5A2B000AF3B1D234A1A80234B9A7C01
:10F6F0003B1D9A704423FB18181C00213C2200F08B
:10F7000014FD4423FB1802221A704423FB18012223
:10F710009A704423FB180622DA700823FB18181C81
:10F7200000213C2200F001FD0823FB1801221A826F
:10F730000823FB183A1D5A614423FA180823FB18C2
:10F74000101C191CFFF77EFC031C8422BA181360DE
:10F750008423FB181B688022BA1813608023FB18CF
:10F760001B68002B05D08023FB181B68181CFCF7B6
:10F7700057F9BD4622B080BD23150000D4210020DA
:10F7800080B582B000AF78600A1CFB1C1A70FB1CAD
:10F790001B78002B03D0022000F030FC02E0022096
:10F7A00000F03EFCBD4602B080BDC04680B584B0CE
:10F7B00000AF0B4B7B600B4A3B1D101C191CFEF766
:10F7C0009FFD031CFB60FB68BB60BB68002B03D084
:10F7D000BB68181CFCF724F9BD4604B080BDC046C8
:10F7E00081F70100D421002080B584B000AF78609B
:10F7F0007B681B78002B10D1094B1B88181C3B2100
:10F80000FFF7DCFE031CFB60FB68BB60BB68002BE2
:10F8100003D0BB68181CFCF703F9BD4604B080BDDB
:10F820000020002080B582B000AF78607B68181C93
:10F83000FCF7F6F8BD4602B080BDC04680B58AB080
:10F8400000AF3B1D181C00211C2200F06EFC3B1D6C
:10F8500000221A603B1DA02212035A603B1DA02209
:10F8600092029A603B1D03221A733B1D0022DA812B
:10F870003B1D00221A743B1D0B4A5A613B1D0B4A6B
:10F880009A613B1D181CFFF7D9FC031C7B627B6A45
:10F890003B623B6A002B03D03B6A181CFCF7C0F8A4
:10F8A000BD460AB080BDC046E9F7010025F8010059
:10F8B00080B588B000AF3B1C181C0021182200F056
:10F8C00034FC3B1C00221A703B1C00225A603B1C7B
:10F8D00000221A723B1C40221A823B1C00225A82D0
:10F8E0003B1C181CFFF766FE031CFB61FB69BB6138
:10F8F000BB69002B03D0BB69181CFCF791F80020F2
:10F9000000F07CFBBD4608B080BDC04680B594B019
:10F9100000AF78607B681B88132B45D007DC102B69
:10F9200012D0112B29D0022B00D18DE0E5E0512B14
:10F9300000D19CE002DC3A2B60D0DEE0522B48D0B4
:10F94000552B00D16DE0D8E0012000F057FB0020DE
:10F9500000F066FB7B689A88694B1A80FCF716F802
:10F96000031CFB64FB6CBB64BB6C002B04D0BB6C46
:10F97000181CFCF755F8C0E0BFE0012000F050FB78
:10F980005F4B012252421A80FCF722F8031CFB64F1
:10F99000FB6C7B647B6C002B03D07B6C181CFCF72E
:10F9A0003FF8FFF785FFA8E0554B1B88181C852101
:10F9B00000220023FFF70EFE031CFB64FB6C3B647C
:10F9C0003B6C002B04D03B6C181CFCF729F894E02E
:10F9D00093E04B4B1B88181C002100220023FFF7EB
:10F9E00001FE031CFB64FB6CFB63FB6B002B04D070
:10F9F000FB6B181CFCF714F87FE07EE07B689B88AB
:10FA0000181C1321FFF7DAFD031CFB64FB6CBB63BE
:10FA1000BB6B002B04D0BB6B181CFCF701F86CE02F
:10FA20006BE07B689B88181C1321FFF7C7FD031C44
:10FA3000FB64FB6C7B637B6B002B04D07B6B181C23
:10FA4000FBF7EEFF59E058E07B689B88181C00210B
:10FA5000FFF7CCFD031CFB64FB6C3B633B6B002B93
:10FA600004D03B6B181CFBF7DBFF46E045E01C2392
:10FA7000F9187B6806229B181022081C191C00F03C
:10FA80004BFB1C23FB181B78002B35D01C23FB18C9
:10FA90001B7A042B09D01C23FB181B7A062B04D0DD
:10FAA0001C23FB181B7A052B26D11C23FB181B7863
:10FAB000022B04D10C23FB1802221A7003E00C2342
:10FAC000FB1801221A700C23FB18C12252009A80E5
:10FAD0007B689A880C23FB18101C191CFFF77EFD0D
:10FAE000031CFB64FB6CFB62FB6A002B04D0FB6A0B
:10FAF000181CFBF795FFFFE7C046BD4614B080BD5C
:10FB00000020002080B582B000AF78607B68181CB0
:10FB1000FFF7FCFE7B68181CFFF7D2FC044A7B68E9
:10FB2000101C191CFEF73CFABD4602B080BDC04651
:10FB3000D421002080B58CB000AF1423FA18274BD5
:10FB4000111C1A1C0423081C111C1A1C00F0E4FAD6
:10FB50001423FA18224B101C191C48220023FBF70F
:10FB6000EFFC031CFB62FB6ABB62BB6A002B03D089
:10FB7000BB6A181CFBF754FF3B1C002001211A1C18
:10FB8000FBF770FD031C7B627B6A3B623B6A002BC8
:10FB900003D03B6A181CFBF743FF3B1C181CFBF708
:10FBA00091FD031C7B627B6AFB61FB69002B03D028
:10FBB000FB69181CFBF734FF0A4B181CFBF720FDF0
:10FBC000031C7B627B6ABB61BB69002B03D0BB69F2
:10FBD000181CFBF725FFBD460CB080BD8C01020050
:10FBE0006822002005FB010080B584B000AF021C34
:10FBF000FB1D1A70BB1D0A1C1A70FB1D1B78102BF5
:10FC00001DD1134ABB1D1B78101C191CFEF7DAFB13
:10FC1000031CFB60FB68002B10D0FB680D4A93426D
:10FC20000CD0FB68082B09D0FB68BB60BB68002BBD
:10FC300004D0BB68181CFBF7F3FE06E005E0FB1DD3
:10FC40001B78181CFBF7ECFEC046BD4604B080BD17
:10FC5000D42100200230000080B582B000AF0A4BF2
:10FC60000A4A181C0121FBF70BFE031C7B607B6812
:10FC70003B603B68002B03D03B68181CFBF7D0FEB1
:10FC8000BD4602B080BDC0460420002066060000CC
:10FC900080B582B000AFFFF7ADFC031C7B607B68D2
:10FCA0003B603B68002B03D03B68181CFBF7B8FE99
:10FCB000BD4602B080BDC04680B582B000AFFFF740
:10FCC0009DFCFFF7A1FC00237B607B683B603B68E9
:10FCD000002B03D03B68181CFBF7A2FEFFF7BCFF0C
:10FCE000FFF728FFFFF7AAFCFFF760FDFFF7F8FC1E
:10FCF000FFF7A4FDFFF7DCFDFFF7CAFFFCE7C046F6
:10FD000080B500AF00F034F8031E06D0124B134A42
:10FD10001A60134B802212021A6000F069F8031E69
:10FD200005D08023DA05C123DB000121D15000F08A
:10FD300085F8031E0ED00B4B1B68012B07D0094B17
:10FD4000094A1A60C046074B1B68012BFBD1074BC1
:10FD5000C0221A60BD4680BD04050040DFFF07C019
:10FD6000186C004000EC06407593000014EC06404F
:10FD700080B500AF1A4B1B68FF221340012B2AD11C
:10FD8000184B1B680F22134025D1174B1B68F0221C
:10FD9000134006D1154B1B68F022134001D10123FB
:10FDA0001AE0114B1B68F0221340102B06D10F4BA9
:10FDB0001B68F022134001D101230DE00A4B1B68A0
:10FDC000F0221340302B06D1084B1B68F022134061
:10FDD00001D1012300E00023181CBD4680BDC046B0
:10FDE000E00F00F0E40F00F0E80F00F0EC0F00F07F
:10FDF00080B500AF0D4B1B68FF221340012B11D1C2
:10FE00000B4B1B680F2213400CD10A4B1B68F022CE
:10FE10001340402B06D1084B1B68F022134001D140
:10FE2000012300E00023181CBD4680BDE00F00F058
:10FE3000E40F00F0E80F00F0EC0F00F080B500AF29
:10FE4000144B1B68FF221340012B1ED1124B1B6861
:10FE50000F22134019D1114B1B68F0221340A02B25
:10FE600006D10F4B1B68F022134001D101230DE096
:10FE70000A4B1B68F0221340D02B06D1084B1B689D
:10FE8000F022134001D1012300E00023181CBD46DD
:10FE900080BDC046E00F00F0E40F00F0E80F00F076
:10FEA000EC0F00F080B582B000AF7860A023DB05D6
:10FEB000181CBD4602B080BD90B585B000AF78601B
:10FEC0000C1C101C191CFB1C221C1A70BB1C021CD5
:10FED0001A707B1C0A1C1A703B1D181CFFF7E2FFEE
:10FEE000031CFB607A68FB1C1978BB1C1B785B0049
:10FEF00019437B1C1B789B0019432023FB181B789C
:10FF00001B0219432423FB181B781B041943FB68AD
:10FF1000C132FF329200D150BD4605B090BDC046FF
:10FF200080B584B002AF78607A6800230093002324
:10FF30000193101C012101220023FFF7BDFFBD46E4
:10FF400002B080BD80B584B000AF78603B1D181C46
:10FF5000FFF7A8FF031CFB607B681A1C012393407A
:10FF6000FA68101C191C00F02DF8BD4604B080BDC5
:10FF700080B584B000AF78603B1D181CFFF792FF7E
:10FF8000031CFB607B681A1C01239340FA68101C59
:10FF9000191C00F025F8BD4604B080BD80B582B0C4
:10FFA00000AF786039603B68002B04D17B68181C77
:10FFB000FFF7DEFF03E07B68181CFFF7C3FFBD46B9
:10FFC00002B080BD80B582B000AF786039607A68D9
:10FFD000A123DB003968D150BD4602B080BDC046C8
:10FFE00080B582B000AF786039607B6802493A68BA
:10FFF0005A50BD4602B080BD0C05000080B582B0ED
:020000022000DC
:1000000000AF7860054A7B68D3181B78181C012163
:10001000FFF7C4FFBD4602B080BDC046900102009C
:1000200080B582B000AF7860054A7B68D3181B7832
:10003000181C0021FFF7B2FFBD4602B080BDC046CC
:100040009001020080B582B000AF00237B6006E023
:100050007B68181CFFF7E4FF7B6801337B607B68DB
:10006000042BF5D9BD4602B080BDC04680B582B034
:1000700000AF00237B6009E0084A7B68D3181B7837
:10008000181CFFF74DFF7B6801337B607B68042BF6
:10009000F2D9FFF7D7FFBD4602B080BD9001020044
:1000A000084B10B5041C002B02D0002100E000BF5B
:1000B000054B1868836A002B00D09847201C00F07D
:1000C00043F8C04600000000980102000E4B70B5D6
:1000D00000251E1C0D4CE41AA410A54204D0AB0050
:1000E000F35898470135F8E700F030F8084B002541
:1000F0001E1C084CE41AA410A54204D0AB00F3580F
:1001000098470135F8E770BD70200020702000206E
:100110007020002074200020002310B5934203D0EB
:10012000CC5CC4540133F9E710BD031C8218934220
:1001300002D019700133FAE770470023C25C013323
:10014000002AFBD1581E7047FEE7C046F8B5C046EE
:10015000F8BC08BC9E467047F8B5C046F8BC08BC61
:100160009E467047BC20002023D1BCEA5F7823154F
:10017000DEEF121200000000B02100204E6F72640A
:1001800069635F426C696E6B7900000001000007D3
:100190001213141516430000102000200000000068
:0801A00080AFFF7F01000000A9
:1001A800FFFF000010000300E9FB01000024F40039
:1001B8000000000000000000000000000000000037
:1001C8000000000000000000000000000000000027
:1001D800950102000000000000000000000000007F
:1001E8000000000000000000000000000000000007
:1001F80000000000000000000000000000000000F7
:1002080000000000000000000000000000000000E6
:0C021800E9B00100C1B0010000000000CE
:040000031000F5698B
:00000001FF
