:020000021000EC
:10B00000004000206DD40100ADD40100AFD4010098
:10B010000000000000000000000000000000000030
:10B02000000000000000000000000000B1D401009A
:10B030000000000000000000B3D40100B5D40100FE
:10B040002DBE0100B7D40100D5C40100B7D4010062
:10B05000B7D4010000000000B5C20100B7D4010060
:10B06000B7D40100B7D40100B7D40100B7D40100B0
:10B07000B7D40100B7D40100B7D40100B7D40100A0
:10B08000B7D4010091B60100B7D40100B7D40100D4
:10B090006DB70100B7D4010039B30100B7D4010086
:10B0A000B7D40100B7D40100000000000000000088
:10B0B0000000000000000000000000000000000090
:10B0C00010B5064C2378002B07D1054B002B02D07E
:10B0D000044800E000BF0123237010BD7C20002045
:10B0E00000000000A4DA010008B5084B002B03D0D3
:10B0F0000748084900E000BF07480368002B00D15B
:10B1000008BD064B002BFBD09847F9E70000000074
:10B11000A4DA010080200020782000200000000038
:10B12000164B002B00D1144B9D46402292029A1AD6
:10B13000924600218B460F461348144A121A02F019
:10B1400078FC0F4B002B00D098470E4B002B00D003
:10B1500098470020002104000D000D48002802D06F
:10B160000C4800E000BF02F035FC2000290002F08E
:10B170007FFA02F019FCC0460000080000400020E1
:10B1800000000000000000007C200020B822002009
:10B19000000000000000000052DF704710DF704721
:10B1A00060DF704761DF704708B500F021FA08BD25
:10B1B000F0B557464E464546E0B42B4B00261C687A
:10B1C0009A4663425C41294B294F9946294B82B0EC
:10B1D0009846E4B2002E1AD1244D2B78002B10D1C2
:10B1E00001A8FFF7D9FF052837D0002825D000F0A7
:10B1F000EFF9002C0ED01D4D01242B780026002BDA
:10B20000EED002B01CBC90469946A246F0BD002C80
:10B21000F7D14D462B78002BF3D143463C681B8871
:10B2200001A9201C0B80FFF7BDFF052819D00028BD
:10B230000DD000F0CDF90024CCE7019800F034FEE9
:10B240000D4B1B68002BD4D001989847D1E753468B
:10B25000201C1B6898470024BCE7002CD1D1012694
:10B26000D8E7002ECDD1C6E7A420002098200020EA
:10B270009C2000209A200020A0200020014B18785C
:10B28000C0B270479920002038B50724002901D0AA
:10B290008D0701D0201C38BD01251A4C21601A49A8
:10B2A0001A4C0A801A4A136023681D4209D0802371
:10B2B0001849E550FFF772FF002807D02560041CED
:10B2C000E8E71449FFF76AFF041EE3D10122124B9D
:10B2D0001A7000F0FDFDC5220C4B92009A585202E4
:10B2E00007D50E4A5468002C05D18022D2031A607B
:10B2F000D0E70B4CCEE780211368C9030B431360E2
:10B300000024C7E79C2000209A20002000E100E0F4
:10B31000A8200020A9B1010099200020B02200201F
:10B3200002200000002803D0024B18600020704764
:10B330000E20FCE7A420002008B5094B1B68002B59
:10B3400006D09847002800D108BD00F041F9FBE77E
:10B35000044B1B78002BF7D0FFF72AFFF4E7C04619
:10B36000A82000209920002070B5141C051C0E1C7C
:10B37000101C0021142202F05CFB00230122236137
:10B38000237B22809343237326726572002D01D0A4
:10B390000123A372002070BD00B5054B83B001935B
:10B3A000019B69460093FFF7FBFE019B03B000BDC4
:10B3B00000200020F8B54D465F4656464446F0B49E
:10B3C000224B1978994600292AD0214B002598460E
:10B3D000204B214F01269A4603E00135EDB28D4204
:10B3E0001ED243461B68321C9C46EC006444207805
:10B3F0003B6882401342F0D093433B6000F050FF23
:10B40000331C22785146934009680B40011C91403F
:10B410008B420BD04B4601351978EDB28D42E0D30B
:10B420003CBC90469946A246AB46F8BD616863783D
:10B430008B460029EED0591E4C424C41211A4B42FA
:10B440004B41101CD9B2D847E4E7C046B4200020D5
:10B45000B0200020D8200020DC200020F8B5124DBC
:10B46000071C281C00F066FC002807D10124BC4002
:10B470000E4E3368234202D0A3433360F8BD381C1C
:10B4800000F00EFF0A4A136800280BD02343136014
:10B490003368281C1C43074B00221968346000F0F5
:10B4A000E7FBEBE7A343F2E7B8200020DC20002015
:10B4B000D8200020AC200020F0B54F464646C0B44E
:10B4C000141C071C83B00E1C0720042A04D803B0E8
:10B4D0000CBC90469946F0BD00F0A8FD00282FD086
:10B4E0001A4B1B4A1F601B4B751E1E701A4BEDB288
:10B4F0001C6000231360194A1360002E1AD0184BE9
:10B5000001AC994603230026984600E01D1C4246E4
:10B51000EB00FB182270A670E6709A7818786270BB
:10B52000211C4A4600F08CFD0028D0D16B1EDBB2F6
:10B53000002DEBD100210B4A0B4800F07FFBC6E742
:10B5400000F03AFD0028CBD0C1E7C046B020002073
:10B55000D8200020B4200020AC200020DC200020D7
:10B560005DB40100B5B301006CDA010070B5094D9E
:10B570002B78002B0BD00024074E3268E300985C38
:10B58000012100F00BFE2B780134A342F5D80020F6
:10B5900070BDC046B4200020B020002070B5094D19
:10B5A0002B78002B0AD00024074E3268E300985C09
:10B5B00000F046FE2B780134A342F6D8034800F091
:10B5C000B9FB70BDB4200020B0200020B8200020BE
:10B5D000002300B585B001AA9060002103481380C4
:10B5E000536000F005F805B000BDC0460140000002
:10B5F000BFF34F8F034A044BDA60BFF34F8FC0464F
:10B60000FDE7C0460400FA0500ED00E0802180233C
:10B61000194A890230B5D1508023D2210124174A1A
:10B620005B028900535040395350154B54601968E0
:10B630002F2314481D1CC046C046C046C046C04605
:10B64000C046C046C046814200D0C046013DF2D14E
:10B65000946000220C4C2260C046C046C046C046E2
:10B66000C046C046C046C046814200D0C046013BED
:10B67000F2D1064B1A7030BD00E100E0001001402D
:10B680000C2000200024F400E020002000210020F5
:10B69000A021F0B5002347462B4A490080B45350FF
:10B6A0000431535004315350043153504C395350EA
:10B6B00004315350254B1B68002B35D024490026FC
:10B6C00052582449244F0C68141B00222402240AD7
:10B6D000904602E0002D18D02B1C1A68A24214D804
:10B6E000A41AB6181A7CDD69002AF3D0424699697B
:10B6F0001A745A693B68002B19D0101C984700280F
:10B70000E8D0FFF765FF002DE6D1144B14491A78F5
:10B710000B789A420ED0134A9B009E5080218023C2
:10B72000114A49035B00D15004BC9046F0BD081C8F
:10B730009047CFE70132D3B2022B01D00B70EAE77A
:10B7400000230B70E7E7C04600100140E420002012
:10B7500004050000E0200020E8200020EC2000206C
:10B76000ED200020F820002000E100E0F0B5564672
:10B770005F464D464446F0B4904B914A1B68914950
:10B780009A460978137887B0994200D1CEE1013307
:10B79000DBB2022B00D19DE113708B4A9B009B58BA
:10B7A000864A984653441B021B0A136001230293E6
:10B7B000864B00241978864B1B689946834B5B782F
:10B7C0000193824B5B689C46804B67469D787B4B20
:10B7D000CC461B6800937F4B1B789B464B46019AD7
:10B7E00091421AD04A0052180131C9B2481B461E74
:10B7F000B041D2004042BA1801401078022800D16E
:10B80000A6E00328EBD1002BE9D01C74DB69002BE8
:10B81000FBD1019A9C469142E4D1594666466D4A55
:10B820001170664A00991160694A1660029A002AEE
:10B8300000D058E14A46D21A511E8A4100251E1CEA
:10B84000D2B2059203935D4B00271B689846604B6C
:10B850001B689B465D4B5B689A465C4B1B789C461D
:10B860005A4B9B7802935B4B1B7804935A4B009383
:10B8700001239946002D27D06968A8682C1CED6922
:10B880004346CA1A009B1202120A9A424DD8131854
:10B890004A4623606760A7602274E761002E53D098
:10B8A0003168301C994204D37AE0116899427ED203
:10B8B000101CC2695B1A002AF7D1E261321C2360B6
:10B8C000C461161C002DD7D1019B9C4500D185E099
:10B8D000624663460132D2B25B00634494460299E9
:10B8E000DB00521A511E8A416146524211405344B4
:10B8F0008C4619785C68321C0129E2D1217C002930
:10B90000DFD199686160D868A0601A69E2605B69FC
:10B91000A361049B002BB3D043460021CA1A009BAD
:10B9200012026560120A9A42B1D94346591A0902B5
:10B93000090A81422AD24A46431A23606760A760F7
:10B940002274E761002EABD1221CA346161CB9E776
:10B950005668002B00D1F0E0181C9E4201D1BBE0DC
:10B96000101CC269002A00D139E79642F8D1321E74
:10B97000824200D1B0E01668D269C261002A00D1CB
:10B980002DE713689B191360634628E74B46276031
:10B990006760A7602374E761002ED5D0002331686B
:10B9A000221CCB1A3360A346E661161C8AE7C91A2B
:10B9B0001160E2612360321CC46182E7E020002054
:10B9C000EC200020ED200020F8200020F0200020B6
:10B9D000E4200020EE200020FEFF7F006246614B45
:10B9E0001A705A46604B1A60039BB34200D163E061
:10B9F000002E00D19EE05D4B5D495E4DC8585E4B08
:10BA000034681A682E78831A1B021B0A033398467F
:10BA1000002E21D18026D1277602BF00CE51403F93
:10BA2000CE51C0238027554EBF025B00F7503760D0
:10BA300001260E605249534B0F682F21C046C04665
:10BA4000C046C046C046C046C046C0469F4200D021
:10BA5000C0460139F2D12E704346A34200D2231CC6
:10BA6000A8249A1812024249130AE4003F4D0B51D0
:10BA70004A591B1A121A1202120A1B0203321B0A1B
:10BA80009A421DD94B590B513D4B3E491A682F2301
:10BA9000C046C046C046C046C046C046C046C04676
:10BAA0008A4200D0C046013BF2D180218023334A34
:10BAB00089025B00D15003E0059B002B00D097E783
:10BAC0000023314A137007B03CBC90469946A24609
:10BAD000AB46F0BD00235FE6DE69002E38D0B446E9
:10BAE000331C021C47E7002500220024404613E0D7
:10BAF0001968814223D8DE68401A52181C60DF6939
:10BB0000002E07D05146DD611D1C51180902090A9B
:10BB100059609E603B1C3E1C002BE9D1124B1E60FD
:10BB20000023039301330593039E8CE6002398467C
:10BB300002933DE6FFF76AFDC2E700234FE60F1AC6
:10BB400003931F600123084A05931660039E7AE65B
:10BB50000122074B9A600023009601369C46021C86
:10BB6000B34608E7F0200020E42000200405000090
:10BB70000010014000210020E020002000E100E052
:10BB80000C2000200024F400EE200020F0B54746F1
:10BB9000032480B4061C0F1C151C98461440072073
:10BBA000002C02D004BC9046F0BD002AFAD0FFF76A
:10BBB0002DFD4246174B80201A60174BC0221C7087
:10BBC0005C709F705D60154BFF211C60144B40033F
:10BBD0001C70144B52001C70C524134BA4009850C9
:10BBE0001A598A433F390A431A51A1221860C420C6
:10BBF0000E49D2008E5080001C580D4A2240C024AD
:10BC0000240222431A500B4B0020CA580A4B1A60D8
:10BC1000C8E7C046E8200020F0200020E4200020F3
:10BC2000EC200020ED20002000E100E000100140A9
:10BC3000FF00FFFF04050000E020002010B50B4BC3
:10BC40005B68002B0BD0002A07D0002805D00368C2
:10BC500008201C7C002C04D010BD0720FCE7082025
:10BC6000FAE759745A610020F6E7C046F020002038
:10BC7000F0B5474680B42B4C82B06368002B09D0E6
:10BC8000002807D00723042906D8181C02B004BCDA
:10BC90009046F0BD0823F8E74369002BFAD0002551
:10BCA000437CA846012B34D0171C6A460023051C90
:10BCB000D01DD3710E1C00F083F86378A278591C54
:10BCC000C9B2521A501E82415242114022788A4211
:10BCD00021D05A00D3186268DB0094466344002BDD
:10BCE00019D0012210481A70104A5D608258DE6037
:10BCF0009A6042465F611A616B46D879617000F0C4
:10BD00007FF8802180230A4A5B004903D150002339
:10BD1000BBE78846C8E76B46D87900F071F8042382
:10BD2000B3E7C046F02000200010014004050000E9
:10BD300000E100E030B5204D83B06B68002B33D0BC
:10BD4000082300282DD04269002A2AD000236A4601
:10BD50000374041CD01DD37100F032F86B78AA78FC
:10BD6000591CC9B2521A501E8241524211402A78BF
:10BD70008A421BD05A00D3186A68DB009446634499
:10BD8000002B13D002225C601A706B46D879697060
:10BD900000F036F880218023084A5B004903D15027
:10BDA0000023181C03B030BD0823FAE76B46D8798E
:10BDB00000F026F80423F4E7F020002000E100E082
:10BDC000F0B5EFF3108172B60A4B5A68002A0DD114
:10BDD00001248025084E5C607459084F3C401C606B
:10BDE00077510270002900D162B6F0BD01230370C3
:10BDF000F8E7C046B022002000E100E0FC06FFBCEE
:10BE000010B5084B5A68002A0BD0002809D1EFF36F
:10BE1000108272B604491C680C605860002A00D178
:10BE200062B610BDB022002000E100E010B51B4B4F
:10BE30001A68002A1BD11A4B1A68002A00D110BDBB
:10BE400000221A60C223802202219B00D205D15019
:10BE50000123144CA3702369002BF0D01A68012031
:10BE600022615B6898472369002BF7D1E7E700223E
:10BE700080211A60C22201230A4C9200C9058B500E
:10BE80006370A368002BD6D01A680020A2605B689C
:10BE90009847A368002BF7D1CDE7C04600010040CA
:10BEA000040100400421002010B5002800D010BD7E
:10BEB000064CA368002BFAD01A680020A2605B68C9
:10BEC0009847A368002BF7D1F1E7C0460421002072
:10BED00030B583B06B46DD1D0023281C2B70FFF7A7
:10BEE0006FFF134C2378002B13D16360A360236191
:10BEF000E360104B1B68DB0715D5FFF7BFF900287F
:10BF000005D1A32380220121DB00D205D1500123DA
:10BF10002370E36828780133E3600123A370FFF7FF
:10BF20006FFF03B030BD0020032100F005F8E4E707
:10BF30000421002000E100E0F0B5002820DBFF270D
:10BF40001B4B03229C463B1C8408C026C0B2024007
:10BF5000D2009340A4006444B600A5599D438B01D0
:10BF60003B409340191C2943A1511F2318401E3BFD
:10BF70008340C022181C0E4B520098501860F0BD30
:10BF8000FF260C4A03249446321C0F23C0B20440FF
:10BF9000E400A2400340083B9B089B006344DD692A
:10BFA00095438A013240A240111C2943D961DCE744
:10BFB00000E100E000ED00E070B54425184C0820D9
:10BFC000665D002E00D070BD01234022FF215B4240
:10BFD000A3540132A1540132A3542362013263629B
:10BFE000A362E36223636363A363E3630238FC3900
:10BFF000A35423606360A360E36023616361A36172
:10C00000E361FFF799FF074B80211E60C123064AB9
:10C010009B000906D150012300206355D3E7C04699
:10C02000182100207C610040006000404423034A46
:10C03000D05C431E9841C0B27047C0461821002012
:10C04000F0B5474680B4524C0825231820331E789B
:10C050007F2E03D8281C04BC9046F0BDCD78AC469A
:10C06000002D36D02568013500D187E00423002655
:10C070009846731C9D006759013733D0B31C98450F
:10C0800025D99D00675901372CD0F31C98451ED93E
:10C090009D006759013725D0331D984517D99D005C
:10C0A000675901371ED0731D984510D99D006759F7
:10C0B000013717D0B31D984509D99D00675901373D
:10C0C00010D00736B04502D9E369013308D0042502
:10C0D000C0E72569013555D0082304269846C8E7EE
:10C0E00007231C25625162462718DEB220373E70B6
:10C0F000002A02D1E3183C3318708B78002B15D13D
:10C10000031CA0254A78C133FF3392009B00ED0544
:10C110005A51CB78002B15D176B2A4193C340B7848
:10C1200022789B0113432370002593E7A022D205B8
:10C130009446E025022783006344ED005A59BA4330
:10C140005A51E6E7A22476B2124BB600F318E40087
:10C150000A781D591049000229401951F821490156
:10C160000840061CC0211004021C301C89021D5905
:10C170000A4010432843185100256BE7002622602F
:10C180001E70BAE7042522611D702E1C2B1CB1E71E
:10C190001821002000600040FFE0FCFFF0B5254DB5
:10C1A0002C182034227853B2032B18DDEB183C33C3
:10C1B0001B789B09032B32D0012B38D0C025AD0250
:10C1C000A023DB059C46E02380006044DB00C458CC
:10C1D00019492140C150C2582A43C250F0BD032A18
:10C1E000FCD81648A227844601269A006244FF0024
:10C1F000D0593043D0511A1C60460027403292007B
:10C2000092B217500029E9D00022A256920052594A
:10C21000002AE3D0C1229E4092008650DEE7A2238E
:10C22000A022DB00D205D358C340DB07C6D480254B
:10C23000AD02C5E718210020FFFFFCFF00600040B1
:10C2400010B5144B1B1820331A7853B2032B12DC91
:10C25000032A0FD8104AA22494460122990061446F
:10C26000E400085990439A40131CC22208516146C9
:10C2700092008B5010BDA023DB059C46E02380007C
:10C280006044DB00C158054A0A40C250C258C2503F
:10C29000F0E7C0461821002000600040FFFFFCFFCF
:10C2A000A223A022DB00D205D358C340181C0123CF
:10C2B00018407047F0B54D465F4656464446002349
:10C2C000F0B47C4A87B0039313680025012B00D19A
:10C2D000E5E0794B1A68012A00D1D4E0774B1A685F
:10C2E000012A00D1C3E0764B1A68012A00D1B2E0DE
:10C2F000744B1A68012A00D1A1E02B071DD0724BA4
:10C30000A2279846F8235B01012600249946FF00E6
:10C3100035420ED06D4AA3009A18D059D1594246E1
:10C32000D358002B05D04A4689031040000A890FD4
:10C33000984701347600042CEAD1002D06DB07B0C3
:10C340003CBC90469946A246AB46F0BD0023049300
:10C35000013B0593C1339B465B4D002300240193B1
:10C36000231C4033E95C4BB201332DD0C9B25B468C
:10C37000081C9843072301270B409F403B1CC20821
:10C3800005AFBF5C3B421FD02F1820373F7889098B
:10C390007FB2BF00EF59BC46002F30D0032930D008
:10C3A000A026F605B0468700B844E0274646FF00C1
:10C3B000F759C026B6023740B14603AEB25C3F0C17
:10C3C000134213D1032F22D00134042CC8D1019B76
:10C3D000002BB4D0A223A022DB00D205D358039AAD
:10C3E0009342ACD00393049B0593B6E7022FEBD1A5
:10C3F000032911D06346002BE6D0E047E4E7032988
:10C40000E2D104AEB7183E781E433E70C8E7032958
:10C41000F0D180239B029946E0234246DB00D258AC
:10C420002B4F4E4617404246D750D2581643321C27
:10C430004646F250019B0133DBB20193DAE700225A
:10C440001A6080231B061D43A022A223D205DB0015
:10C45000D358039351E7C1221C49920089580822FE
:10C460000A4200D144E700211543196040E7C12288
:10C4700016499200895804220A4200D133E700216C
:10C48000154319602FE7C1221049920089580222F2
:10C490000A4200D122E70021154319601EE7C1219D
:10C4A0000A48890041580B4200D112E71560013556
:10C4B0000FE7C04600610040046100400861004091
:10C4C0000C6100407C6100401821002000600040A9
:10C4D000FFFFFCFFC12310B5614A9B00D35884B015
:10C4E0009B054FD592235B00D15800294AD00021EB
:10C4F000D1508121E5338900FF33D150594B997ECA
:10C50000002901D101315160022269460A7090214F
:10C510005348C9004258425069460392DA7D684642
:10C520000A72DA68196801920022DA751A765B6875
:10C5300098478E214A4A49005358002B0FD0494B47
:10C540009C8A987D84424FD200205050998A9868E6
:10C55000405C998A013189B29982434BD050A22321
:10C560003F4A5B00D15800290AD00021D1503D4BF1
:10C57000997E002901D001211160DA7D002A42D183
:10C5800004B010BDC123364A9B00D3585B07D0D5F9
:10C59000842149005358002BCBD0324BD87D002842
:10C5A0003ED15050A321C90052585A7E8242C0D178
:10C5B0001A7E002A42D19A7E002A02D10121284AFD
:10C5C00051608120C22226498000920088500022BA
:10C5D00068460121DA755A7E01700272DA681968BC
:10C5E00001925B689847A4E7002454500028B6D015
:10C5F0006A46147010729A689C75196801925B689B
:10C6000068469847ABE7002268460121DA755A7EF2
:10C6100001700272DA68196801925B689847AFE7A7
:10C6200000205050A320C000597E1258D8684254B0
:10C630005A7ED87D0132D2B25A76B6E7DA751A69D7
:10C64000D968DA6000226C46587E1A765A76013232
:10C65000207201912270196868465B68984768E704
:10C6600000200040602100201C050000A0DF704772
:10C67000A2DF7047A6DF704763DF704708B50B88FD
:10C68000112B15D0502B05D0102B00D008BD8B8856
:10C690008382FBE74288CB889A42F7D10B8A063126
:10C6A000012BF3D18369002BF0D0097B9847EDE78C
:10C6B00001235B428382E9E7F0B5564644465F4674
:10C6C0004D460123F0B45B4283820B68041C8361F6
:10C6D000102395B07649102204A89A4601F0A0F9DB
:10C6E000211C04A81231FFF7C7FF061E07D0301C1B
:10C6F00015B03CBC90469946A246AB46F0BDA37C23
:10C7000002A98B706B4B0120221C0B80FFF7AEFF40
:10C71000061EECD100210322684601F08AF90F229F
:10C720006B4691461B780DAD93430E3A90461343EA
:10C730004A461340102293465A4613436A461370E2
:10C7400053784A469343424613434A4613405A4657
:10C7500013436A465370937806229343043A134373
:10C760006A4600219370281C1C2201F062F9022203
:10C770002B78002113435A4613432B706B466A46AD
:10C780006B61A37C01A893734B4B6E609381032272
:10C79000EE602E61AE6101F04CF96B464A461B79A2
:10C7A00008AF9343424613434A4613405A46134345
:10C7B0006A46137100235371937906229343043A16
:10C7C0001343DBB2063293435246934342469343AC
:10C7D0006A4600219371381C142201F02AF903AB38
:10C7E000089301AB7B6043463B81BB81231C2088BF
:10C7F000291C3A1C0A337E813E61FFF739FF061E71
:10C8000000D074E700211C22281C01F012F902223A
:10C810002B7800211343082213436A462B70A37C14
:10C8200001A89373254B6E6093810322EE602E6105
:10C830006E61AE6101F0FDF86B464A461B7900213E
:10C840009343424613434A4613405A4613436A46AB
:10C85000137153794A469343424613434A46134061
:10C860005A4613436A465371937906229343043A16
:10C870001343DBB2063293435246934342469343FB
:10C880006A46381C9371142201F0D3F803AB089365
:10C8900001AB7B60434620883B81BB81291CA31CE4
:10C8A0003A1C7E813E61FFF7E3FE061C1FE7C0468F
:10C8B00070DA010023150000241500002515000082
:10C8C000F0B589B06B460E26DF1DD971012304AC8B
:10C8D000051C6E441022201C0021338001F0A9F8B1
:10C8E0000123A3706B89A88A211C2380E760A660BE
:10C8F000FFF7C0FE09B0F0BD71DF704772DF70470F
:10C9000079DF70477DDF704765DF7047F0B50488D9
:10C91000051C83B00720012C04D01488A01C984269
:10C9200002D90C2003B0F0BD2E78012E04D16E7810
:10C9300002363619B342F4D3023B1C1B6B460F1C64
:10C94000A4B20818991D161CDC80FFF7DBFF002835
:10C95000E8D12B78022B18D0012B11D0231C0821F1
:10C96000FE2BDED83288581CB854328800200132A1
:10C9700092B23280B954328801329B183380D1E7A9
:10C980006B789C42EBD2231CE9E76B46DB880921DC
:10C990009C42E5D2231CE2E7F0B55F46564644468A
:10C9A0004D46F0B485B09A460EAB80CB061C1B8872
:10C9B00000919B463B88904601930388002B5BD0F7
:10C9C0000023994602AB0024DD1C03E033880134C8
:10C9D000A3422ADD7368A1009C460422614403A897
:10C9E00001F01EF803A8291C0022FFF78DFF002884
:10C9F00026D12B784345E9D14B46002B27D043461F
:10CA00003A88D3185B4539DC524403A8291CFFF748
:10CA10007BFF002814D13B882A780134D3183B804F
:10CA2000012399463388A342D4DC4B46002B23D004
:10CA30003B88019A013B9B1A9BB20C20FF2B18D913
:10CA400005B03CBC90469946A246AB46F0BD424676
:10CA50003B889A1802325A4510DC69465246013327
:10CA600009789BB23B80D1543A88013292B23A8025
:10CA7000CAE7111C524653540020E1E70C20DFE7BF
:10CA8000F0B544465F464D465646F0B41388141C34
:10CA90009846002313802D33C25C87B0051C0F1C01
:10CAA0000023002A00D0BAE0AA78002A00D0E3E0F0
:10CAB000E978002900D0A7E06A68002A14D011782C
:10CAC000DA1C424500D9A2E00222FA542388083237
:10CAD00001339BB22380FA54238801339BB2238015
:10CAE000F9542388013323802B89002B00D0F6E0F2
:10CAF0002B8A002B00D00DE12B8B002B00D024E1E2
:10CB00002B6A002B45D022880C20911D414500D96D
:10CB10007EE0198805388B46052900D878E0C04E9C
:10CB20005E44B6B2B146BF4EB446B14500D86FE0E0
:10CB30005E88B246052E6BD9B94E6946B146D144DE
:10CB40004E46CE81CE89664562D9B74EB34503D0F5
:10CB5000B24501D0D3455BD80521B95422880D31A7
:10CB6000013292B22280B9542288013292B22280DC
:10CB70001988BA181170090A51702288023292B2CB
:10CB800022805988BB181970090A5970238802330A
:10CB900023806E6A002E2CD0B2882188131D5B186A
:10CBA0000C20434534D8931CFE2B31D803327A54E1
:10CBB000FF22238801339BB22380FA542388013358
:10CBC0009BB223803288FB181A70120A5A7023888D
:10CBD00002339BB22380B288002A0AD0B16805389C
:10CBE000002915D0F81800F01BFF2288B388D3184D
:10CBF00023802C23EB5C002B00D0C1E02B78002B92
:10CC000000D004E1002003E0DA1C424555D90C2095
:10CC100007B03CBC90469946A246AB46F0BD4346A1
:10CC20000C20082BF4D904A8FFF766FE0028EFD1EA
:10CC3000082223880921FA542388133201339BB236
:10CC40002380FA5402AB9C462088153A013080B20A
:10CC500020806144381800F0E3FE238802AA0633DE
:10CC6000127A9BB22380002A00D00122FA54238832
:10CC700001339BB2238017E704330C204345C7D808
:10CC800004A8FFF73DFE0028C2D103222388FA54EE
:10CC90002388163201339BB22380FA54238802AAD8
:10CCA00001339BB212892380FB181A70120A5A7042
:10CCB000238802339BB22380FAE60222FA542388A7
:10CCC000013A01339BB22380FA54238801339BB28B
:10CCD0002380F954238801339BB22380ECE62E1C79
:10CCE0004346083601930094301C022102223B1C6B
:10CCF000FFF752FE002800D08AE7434600940193D4
:10CD0000301C062110223B1CFFF746FE002800D0F5
:10CD10007EE7EDE62E1C4346103601930094301C4E
:10CD2000032102223B1CFFF737FE002800D06FE7EB
:10CD3000434600940193301C072110223B1CFFF74F
:10CD40002BFE002800D063E7D6E62E1C434618369B
:10CD500001930094301C142102223B1CFFF71CFE9F
:10CD6000002800D054E7434600940193301C15215D
:10CD700010223B1CFFF710FE002800D048E7BFE65A
:10CD8000AE6A002E4AD0B3880233FE2B00D93EE7AC
:10CD90000022914616329246163293462088524619
:10CDA00001333B54238801339BB22380FA542388F8
:10CDB00001339BB223803288FB181A70120A5A7012
:10CDC0002088023080B22080B288002A0AD0B16860
:10CDD000002923D0381800F023FE2088B388C0181B
:10CDE00080B220804B460133DBB299465B46EB5C58
:10CDF0004B4500D802E74B465E00AB6A4E449C466A
:10CE0000B6006644B3880233FE2BC8D9FFE6281C5F
:10CE1000391C221C4346FFF779FDF9E60720F7E6A7
:10CE20007FF3FFFF7DF30000FFFF0000F0B54D46EC
:10CE300044465F4656461F23F0B497B002AA041C2E
:10CE40000D1CD381002800D10CE1C078430700D429
:10CE5000C9E0002302AA93812D33E35C002B00D0AC
:10CE6000C9E0A3780EAF002B00D01BE10023002106
:10CE7000032206AE02277754591C02339BB289B2B3
:10CE8000013F7754F05493B202AA93816268002A5A
:10CE90000FD01078DA1C1F2A00D9E1E002210A27FE
:10CEA000F154591C02339BB289B27754F05402AB4F
:10CEB0009A812389002B00D05CE1238A002B00D0CB
:10CEC00076E1238B002B00D096E1236A002B44D01F
:10CED00002AA92890C20911D8B461F2900D983E05C
:10CEE0001888824657460720052F00D87CE0BF4FA0
:10CEF0006946BC46D4446746CF81CF89BC46BC4F07
:10CF0000B846BC4570D95F88BC46052F6CD9B74F71
:10CF10006744CF81BFB2474566D9B64FBA4503D003
:10CF2000BC4501D0E2455FD805201227B054501C03
:10CF300080B23754901C80B202AFB8811F8830187D
:10CF400007703F0A47705888131D5A469BB2F31862
:10CF50001870000A587002AB9A81676A002F31D0AE
:10CF6000BB88991C02AB9B899A1C5018804691463D
:10CF700042460C201F2A37D8FE2935D80131F154FA
:10CF8000591C89B2F33070544A466946CA81CA892D
:10CF900002A98A813988B2180433117098B2090A3B
:10CFA00002AB51709881BA88002A0BD0B968002969
:10CFB00019D0301800F034FD02ABBA889B89D31821
:10CFC00002AA93812C23E15C002900D089E0237818
:10CFD000002B4AD0201C311C05AA1F23FFF796FC0A
:10CFE000002842D000E0072017B03CBC904699468C
:10CFF000A246AB46F0BD0EAF381CFFF77DFC002803
:10D00000F2D1082202AB9B8906AEF2545A1C0233BD
:10D0100098B21B2102AB9C4692B2B1541631988152
:10D0200061440622301800F0FBFC02AB9B8902A988
:10D030009A1D92B28A813978002900D001210733E4
:10D04000B1549BB202AA9381A278002A26D1E0783B
:10D05000002800D11AE7DA1C191C1F2A00D809E79A
:10D060000C20C1E7002602AB9881002D34D0EB786C
:10D07000002BB8D102AA94460E236344281C0EA9A3
:10D080001A1CFFF7FDFC0028AED102AB9B7B0EAA59
:10D0900002A9097B301CFFF731FCA5E704330C2003
:10D0A0001F2BA1D8381CFFF72BFC00289CD1032292
:10D0B000192102AB9B8906AEF2545A1C92B2B154AC
:10D0C0009A1C398892B2B21811700433090A51704F
:10D0D0009BB202AA9381BAE702ABDD810022002352
:10D0E000D6E7A76A002F00D17DE7BB880233FE2B6D
:10D0F000B6D802AA9089002290461632914616327E
:10D1000092460AE043465F00A36A47449C46BF003C
:10D110006744BB880233FE2BA2D84A4601333354FE
:10D12000431C9BB2F254831C9BB202AA93813A889F
:10D13000F3181A700430120A5A7080B202AB988148
:10D14000BA88002A0FD0B968002900D14BE73018FF
:10D1500000F066FC02AB9B89B888C01880B202ABB5
:10D1600098815346E15C43460133DBB298468B42DB
:10D17000C8D32CE705AB271C00931F23083798461C
:10D180000193381C02210222331CFFF705FC002802
:10D1900000D029E705AB00934346381C01930621D4
:10D1A0001022331CFFF7F8FB002800D01CE784E6B0
:10D1B00005AB271C00931F23103798460193381C9A
:10D1C00003210222331CFFF7E7FB002800D00BE706
:10D1D00005AB00934346381C019307211022331CF2
:10D1E000FFF7DAFB002800D0FEE66AE67FF3FFFFD8
:10D1F0007DF30000FFFF000005AB271C00931F23F9
:10D20000183798460193381C14210222331CFFF76B
:10D21000C3FB002800D0E7E605AB00934346381C6B
:10D22000019315211022331CFFF7B6FB002800D014
:10D23000DAE64AE675DF704776DF70477ADF7047D7
:10D240007BDF704710B5184B82B01888174B984297
:10D2500014D0174A174C13780133DBB21370217BBB
:10D2600099420DD200231370237C002B12D16369E5
:10D27000002B03D0002201A80270984702B010BD15
:10D280000D49FFF7D7FF0028F8D0A369002BF5D090
:10D290009847F3E73B21FFF7CFFF0028E7D0A369CA
:10D2A000002BE4D09847E2E7C8210020FFFF0000F0
:10D2B000882100208C210020CC21002030B51B4B80
:10D2C0001B4A5B88118883B099420FD852889A42D2
:10D2D0000CD3184B5B69002B03D0012201A802700C
:10D2E0009847154C0023237003B030BD124C2378AF
:10D2F000002B08D00F4B5B69002BF3D0002201A854
:10D3000002709847EEE70D4B0A4D1B78002B0BD0AF
:10D31000A9680B480022FEF7ABFC0028E2D0AB69FD
:10D32000002BDFD09847DDE76968F2E78021002015
:10D33000CC2100208C2100207C210020882100208D
:10D34000A8210020164938B5021C0B1C32CA32C372
:10D3500032CA32C312681A600022124B01681A7076
:10D36000002916D0104C0832201C00F059FB201C5C
:10D37000FFF764FF00280BD101220C4B52421A80A8
:10D3800000220B4B0B481A7000210B4AFEF756FC8B
:10D3900038BD0548FFF754FF0028EDD0F8E7C04638
:10D3A0008C2100207C210020CC210020C8210020DD
:10D3B0008821002080DA010045D2010010B50388E1
:10D3C000112B33D021D9122B18D0502B1CD1204C2B
:10D3D000C288E3899A4217D1038A022B14D11230F2
:10D3E00000F040F800280DD11A48FEF7A3FC0028F1
:10D3F0000AD0A369002B07D0984705E0164B0830E8
:10D4000006C806C3FFF75AFF10BD102BFCD1828857
:10D41000124B18301A80104B06C806C30022104B5E
:10D420001A700B4BDB89002BEED1EBE701220B4B83
:10D4300052421A8000220A4B06481A70FEF77AFC04
:10D440000028E1D0024B9B69002BDDD09847DBE739
:10D450008C210020A821002080210020C82100204C
:10D4600088210020012300781840704703210A48D2
:10D4700002680A430260094802680A4302600849D8
:10D48000084A094B9B1A03DD043BC858D050FBDC0B
:10D4900000F0D4F9FDF744FE240500405405004097
:10D4A000B0DA0100002000207C200020FEE7FEE72B
:10D4B000FEE7FEE7FEE7FEE773DF704776DF7047C3
:10D4C0007ADF70477CDF70477FDF7047A8DF7047E7
:10D4D000A9DF704767DF704748DF704708B5FEF780
:10D4E00077F808BD08B50220002902D100F028FA1B
:10D4F00008BD00F019FAFBE708B50378002B00D04F
:10D5000008BD054B3B211888FFF7D8FF0028F7D04E
:10D51000FEF75EF8F4E7C0460020002008B51028AA
:10D5200009D10648FFF7CCF90823021C9A4304D01E
:10D53000034B984201D0FEF74BF808BD4C22002067
:10D540000230000010B5038886B0041C132B00D1F4
:10D550007FE00FD9512B64D04BD9522B3FD0552BA4
:10D560000ED1A0881321FFF7A9FF002808D0FEF7ED
:10D570002FF805E0102B3FD0112B0AD0022B49D0F9
:10D58000201CFFF71BFF3848211CFFF777F806B077
:10D5900010BD012000F0D4F90122344B52421A8010
:10D5A000FDF7FCFF002801D0FEF712F80021182239
:10D5B000684600F03EFA00236A466946137013720B
:10D5C0004022684601930A824B82FFF775FF0028CC
:10D5D00001D0FDF7FDFF002000F0A6F9D0E7234BB6
:10D5E0000021188800220023FFF772FF0028C7D00F
:10D5F000BDE73A2BB5D0C3E7012000F095F9002034
:10D6000000F09EF9A288194B1A80FDF7AFFF0028A1
:10D61000B6D0ACE780880021FFF75CFF0028AFD0D0
:10D62000A5E78379827B002BAAD0043A022AA7D8E7
:10D63000023B5A4253416A4601331370C1235B00D7
:10D64000938080886946FFF741FF002800D197E763
:10D650008DE7064B8521188800220023FFF734FF51
:10D66000002800D18CE782E74C2200200020002017
:10D67000F0B5A1B000F072F900200521634A002343
:10D68000FEF784FA002801D0FDF7A2FF60480121CF
:10D69000604AFDF711FF002801D0FDF799FF02ADA8
:10D6A0005D490422281C00F0BBF9281C5B49482274
:10D6B0000023FDF7E9FD002801D0FDF789FF11AC3B
:10D6C00000200121221CFDF74FFE002801D0FDF7AC
:10D6D0007FFF201CFDF760FE002801D0FDF778FFDA
:10D6E0004F48FDF71FFE002801D0FDF771FF0F2105
:10D6F00001222B784B4E8B43134310220B401343D4
:10D70000301C2B7000F09DF9311C82B2281CFFF7F1
:10D71000D9FE002801D0FDF75BFF201C0021082264
:10D7200000F087F950232380503363800023A380C7
:10D730009133FF33201CE380FFF7C2FE002801D0A5
:10D74000FDF746FF384F394B381C211C1193FEF76B
:10D75000B3FF002801D0FDF73BFF354B01AE33800E
:10D76000BB7C0021B3703C22281C00F062F902232C
:10D7700001272B7000210433201C3C22AF70EB707A
:10D7800000F057F9281C211C27826661FFF74EFB29
:10D79000002801D0FDF71CFF1C22201C002100F0F6
:10D7A00048F9A02212036260A02200239202A26024
:10D7B00003221193E38123741E4B201C63611E4BD3
:10D7C0002273A361FFF7BEFD002801D0FDF700FF23
:10D7D0001822201C002100F02CF900234022201CDC
:10D7E00023706360237222826382FFF765FE002844
:10D7F00001D0FDF7EDFE002000F096F8FFF76CFE7B
:10D800000028FBD0FDF7E4FEF8E7C046D421002055
:10D81000042000206606000084DA0100682200204F
:10D8200045D5010088DA01004C220020E5D4010032
:10D8300023150000F9D40100DDD40100304B1B7822
:10D84000012B00D070472F4B1B681B07FAD1F02229
:10D850002D4B1B68134027D12C4B1B68134229D03A
:10D86000284B1B681B07EDD1F022274B1B68134088
:10D87000402B32D0244B1A68F0231340A02B01D048
:10D88000D02BDFD1214B1A68F0231A42DAD1204A7B
:10D890001368012B04D01F4B13601368012BFCD1BC
:10D8A000C0221D4B1A60CDE7102B0FD1174B1B6800
:10D8B0001342D9D1194A1A4B1A608022194B12020D
:10D8C0001A600F4B1B78012BCAD0BBE7302BCBD192
:10D8D0000E4B1B681342C7D1ECE70C4B1B6813427D
:10D8E000C8D1C12380220121DB00D205D150044BD5
:10D8F0001B78012BA6D1034B1B681B07BAD0A1E7ED
:10D90000E00F00F0E40F00F0E80F00F0EC0F00F083
:10D9100000EC06407593000014EC0640DFFF07C0E2
:10D9200004050040186C0040044BA0211A5C012340
:10D930009340A122C905D2008B50704798DA0100AC
:10D94000044BA0211A5C01239340034AC9058B5064
:10D950007047C04698DA01000C050000A023E921B9
:10D960000322DB05C9005A500C495A5004315A5061
:10D970000B495A5004315A5080210A4AC902995021
:10D9800080210903995080214903995080218903FE
:10D9900099508021C90399507047C0464C07000038
:10D9A000540700000C050000084B10B5041C002BA8
:10D9B00002D0002100E000BF054B1868836A002BED
:10D9C00000D09847201C00F043F8C046000000003B
:10D9D000A0DA01000E4B70B500251E1C0D4CE41A98
:10D9E000A410A54204D0AB00F35898470135F8E7DE
:10D9F00000F030F8084B00251E1C084CE41AA41057
:10DA0000A54204D0AB00F35898470135F8E770BD44
:10DA10007020002070200020702000207420002042
:10DA2000002310B5934203D0CC5CC4540133F9E712
:10DA300010BD031C8218934202D019700133FAE71B
:10DA400070470023C25C0133002AFBD1581E704787
:10DA5000FEE7C046F8B5C046F8BC08BC9E46704715
:10DA6000F8B5C046F8BC08BC9E467047B8200020F8
:10DA700023D1BCEA5F782315DEEF1212000000000C
:10DA8000A8210020010000074E6F726469635F42A5
:10DA90006C696E6B790000001213141516430000B8
:08DAA00010200020000000002E
:08DAA80078D6FF7F01000000A9
:10DAB000FFFF0000100003001DD501000024F4004A
:10DAC0000000000000000000000000000000000056
:10DAD0000000000000000000000000000000000046
:10DAE0009DDA0100000000000000000000000000BE
:10DAF0000000000000000000000000000000000026
:10DB00000000000000000000000000000000000015
:10DB10000000000000000000000000000000000005
:0CDB2000E9B00100C1B0010000000000ED
:040000031000D46DA8
:00000001FF
